{
  "contractName": "organ",
  "abi": [
    {
      "inputs": [
        {
          "internalType": "uint256",
          "name": "",
          "type": "uint256"
        }
      ],
      "name": "doctor_register",
      "outputs": [
        {
          "internalType": "string",
          "name": "name",
          "type": "string"
        },
        {
          "internalType": "uint256",
          "name": "contact",
          "type": "uint256"
        },
        {
          "internalType": "string",
          "name": "id",
          "type": "string"
        },
        {
          "internalType": "string",
          "name": "password",
          "type": "string"
        },
        {
          "internalType": "address",
          "name": "adrr",
          "type": "address"
        }
      ],
      "stateMutability": "view",
      "type": "function",
      "constant": true
    },
    {
      "inputs": [
        {
          "internalType": "string",
          "name": "",
          "type": "string"
        }
      ],
      "name": "donor_map",
      "outputs": [
        {
          "internalType": "string",
          "name": "name",
          "type": "string"
        },
        {
          "internalType": "uint256",
          "name": "contact",
          "type": "uint256"
        },
        {
          "internalType": "uint256",
          "name": "age",
          "type": "uint256"
        },
        {
          "internalType": "string",
          "name": "id",
          "type": "string"
        },
        {
          "internalType": "string",
          "name": "organs",
          "type": "string"
        },
        {
          "internalType": "string",
          "name": "date",
          "type": "string"
        },
        {
          "internalType": "string",
          "name": "donor_blood_group",
          "type": "string"
        },
        {
          "internalType": "string",
          "name": "donor_location",
          "type": "string"
        },
        {
          "internalType": "string",
          "name": "cid",
          "type": "string"
        }
      ],
      "stateMutability": "view",
      "type": "function",
      "constant": true
    },
    {
      "inputs": [
        {
          "internalType": "uint256",
          "name": "",
          "type": "uint256"
        }
      ],
      "name": "donor_register",
      "outputs": [
        {
          "internalType": "string",
          "name": "name",
          "type": "string"
        },
        {
          "internalType": "uint256",
          "name": "contact",
          "type": "uint256"
        },
        {
          "internalType": "uint256",
          "name": "age",
          "type": "uint256"
        },
        {
          "internalType": "string",
          "name": "id",
          "type": "string"
        },
        {
          "internalType": "string",
          "name": "organs",
          "type": "string"
        },
        {
          "internalType": "string",
          "name": "date",
          "type": "string"
        },
        {
          "internalType": "string",
          "name": "donor_blood_group",
          "type": "string"
        },
        {
          "internalType": "string",
          "name": "donor_location",
          "type": "string"
        },
        {
          "internalType": "string",
          "name": "cid",
          "type": "string"
        }
      ],
      "stateMutability": "view",
      "type": "function",
      "constant": true
    },
    {
      "inputs": [
        {
          "internalType": "string",
          "name": "",
          "type": "string"
        }
      ],
      "name": "is_doctor_registered",
      "outputs": [
        {
          "internalType": "bool",
          "name": "",
          "type": "bool"
        }
      ],
      "stateMutability": "view",
      "type": "function",
      "constant": true
    },
    {
      "inputs": [
        {
          "internalType": "string",
          "name": "",
          "type": "string"
        }
      ],
      "name": "is_donor_registered",
      "outputs": [
        {
          "internalType": "bool",
          "name": "",
          "type": "bool"
        }
      ],
      "stateMutability": "view",
      "type": "function",
      "constant": true
    },
    {
      "inputs": [
        {
          "internalType": "string",
          "name": "",
          "type": "string"
        }
      ],
      "name": "is_recipient_registered",
      "outputs": [
        {
          "internalType": "bool",
          "name": "",
          "type": "bool"
        }
      ],
      "stateMutability": "view",
      "type": "function",
      "constant": true
    },
    {
      "inputs": [
        {
          "internalType": "string",
          "name": "",
          "type": "string"
        }
      ],
      "name": "recipient_map",
      "outputs": [
        {
          "internalType": "string",
          "name": "name",
          "type": "string"
        },
        {
          "internalType": "uint256",
          "name": "contact",
          "type": "uint256"
        },
        {
          "internalType": "uint256",
          "name": "age",
          "type": "uint256"
        },
        {
          "internalType": "string",
          "name": "id",
          "type": "string"
        },
        {
          "internalType": "string",
          "name": "date",
          "type": "string"
        },
        {
          "internalType": "string",
          "name": "organs_required",
          "type": "string"
        },
        {
          "internalType": "string",
          "name": "recipient_blood_group",
          "type": "string"
        },
        {
          "internalType": "string",
          "name": "recipient_location",
          "type": "string"
        },
        {
          "internalType": "string",
          "name": "recipient_cid",
          "type": "string"
        }
      ],
      "stateMutability": "view",
      "type": "function",
      "constant": true
    },
    {
      "inputs": [
        {
          "internalType": "uint256",
          "name": "",
          "type": "uint256"
        }
      ],
      "name": "recipient_register",
      "outputs": [
        {
          "internalType": "string",
          "name": "name",
          "type": "string"
        },
        {
          "internalType": "uint256",
          "name": "contact",
          "type": "uint256"
        },
        {
          "internalType": "uint256",
          "name": "age",
          "type": "uint256"
        },
        {
          "internalType": "string",
          "name": "id",
          "type": "string"
        },
        {
          "internalType": "string",
          "name": "date",
          "type": "string"
        },
        {
          "internalType": "string",
          "name": "organs_required",
          "type": "string"
        },
        {
          "internalType": "string",
          "name": "recipient_blood_group",
          "type": "string"
        },
        {
          "internalType": "string",
          "name": "recipient_location",
          "type": "string"
        },
        {
          "internalType": "string",
          "name": "recipient_cid",
          "type": "string"
        }
      ],
      "stateMutability": "view",
      "type": "function",
      "constant": true
    },
    {
      "inputs": [
        {
          "internalType": "string",
          "name": "",
          "type": "string"
        }
      ],
      "name": "registered_id",
      "outputs": [
        {
          "internalType": "string",
          "name": "name",
          "type": "string"
        },
        {
          "internalType": "uint256",
          "name": "contact",
          "type": "uint256"
        },
        {
          "internalType": "string",
          "name": "id",
          "type": "string"
        },
        {
          "internalType": "string",
          "name": "password",
          "type": "string"
        },
        {
          "internalType": "address",
          "name": "adrr",
          "type": "address"
        }
      ],
      "stateMutability": "view",
      "type": "function",
      "constant": true
    },
    {
      "inputs": [],
      "name": "getter",
      "outputs": [
        {
          "internalType": "uint256",
          "name": "",
          "type": "uint256"
        }
      ],
      "stateMutability": "view",
      "type": "function",
      "constant": true
    },
    {
      "inputs": [
        {
          "internalType": "string",
          "name": "_name",
          "type": "string"
        },
        {
          "internalType": "uint256",
          "name": "_contact",
          "type": "uint256"
        },
        {
          "internalType": "string",
          "name": "_id",
          "type": "string"
        },
        {
          "internalType": "string",
          "name": "_password",
          "type": "string"
        }
      ],
      "name": "doctorSignUp",
      "outputs": [],
      "stateMutability": "nonpayable",
      "type": "function"
    },
    {
      "inputs": [
        {
          "internalType": "string",
          "name": "_id",
          "type": "string"
        },
        {
          "internalType": "string",
          "name": "_password",
          "type": "string"
        }
      ],
      "name": "doctorSignIn",
      "outputs": [
        {
          "internalType": "bool",
          "name": "",
          "type": "bool"
        }
      ],
      "stateMutability": "view",
      "type": "function",
      "constant": true
    },
    {
      "inputs": [
        {
          "internalType": "string",
          "name": "_id",
          "type": "string"
        }
      ],
      "name": "view_donor_details",
      "outputs": [
        {
          "components": [
            {
              "internalType": "string",
              "name": "name",
              "type": "string"
            },
            {
              "internalType": "uint256",
              "name": "contact",
              "type": "uint256"
            },
            {
              "internalType": "uint256",
              "name": "age",
              "type": "uint256"
            },
            {
              "internalType": "string",
              "name": "id",
              "type": "string"
            },
            {
              "internalType": "string",
              "name": "organs",
              "type": "string"
            },
            {
              "internalType": "string",
              "name": "date",
              "type": "string"
            },
            {
              "internalType": "string",
              "name": "donor_blood_group",
              "type": "string"
            },
            {
              "internalType": "string",
              "name": "donor_location",
              "type": "string"
            },
            {
              "internalType": "string",
              "name": "cid",
              "type": "string"
            }
          ],
          "internalType": "struct organ.donor_account",
          "name": "",
          "type": "tuple"
        }
      ],
      "stateMutability": "view",
      "type": "function",
      "constant": true
    },
    {
      "inputs": [
        {
          "internalType": "string",
          "name": "_id",
          "type": "string"
        }
      ],
      "name": "view_recipient_details",
      "outputs": [
        {
          "components": [
            {
              "internalType": "string",
              "name": "name",
              "type": "string"
            },
            {
              "internalType": "uint256",
              "name": "contact",
              "type": "uint256"
            },
            {
              "internalType": "uint256",
              "name": "age",
              "type": "uint256"
            },
            {
              "internalType": "string",
              "name": "id",
              "type": "string"
            },
            {
              "internalType": "string",
              "name": "date",
              "type": "string"
            },
            {
              "internalType": "string",
              "name": "organs_required",
              "type": "string"
            },
            {
              "internalType": "string",
              "name": "recipient_blood_group",
              "type": "string"
            },
            {
              "internalType": "string",
              "name": "recipient_location",
              "type": "string"
            },
            {
              "internalType": "string",
              "name": "recipient_cid",
              "type": "string"
            }
          ],
          "internalType": "struct organ.recipient_account",
          "name": "",
          "type": "tuple"
        }
      ],
      "stateMutability": "view",
      "type": "function",
      "constant": true
    },
    {
      "inputs": [
        {
          "internalType": "string",
          "name": "_id",
          "type": "string"
        },
        {
          "internalType": "string",
          "name": "_name",
          "type": "string"
        },
        {
          "internalType": "uint256",
          "name": "_contact",
          "type": "uint256"
        },
        {
          "internalType": "uint256",
          "name": "_age",
          "type": "uint256"
        },
        {
          "internalType": "string",
          "name": "_organ",
          "type": "string"
        },
        {
          "internalType": "string",
          "name": "_date",
          "type": "string"
        },
        {
          "internalType": "string",
          "name": "_bg",
          "type": "string"
        },
        {
          "internalType": "string",
          "name": "_location",
          "type": "string"
        },
        {
          "internalType": "string",
          "name": "_cid",
          "type": "string"
        }
      ],
      "name": "donorSubmitDetails",
      "outputs": [],
      "stateMutability": "nonpayable",
      "type": "function"
    },
    {
      "inputs": [
        {
          "internalType": "string",
          "name": "_id",
          "type": "string"
        },
        {
          "internalType": "string",
          "name": "_name",
          "type": "string"
        },
        {
          "internalType": "uint256",
          "name": "_contact",
          "type": "uint256"
        },
        {
          "internalType": "uint256",
          "name": "_age",
          "type": "uint256"
        },
        {
          "internalType": "string",
          "name": "_organ",
          "type": "string"
        },
        {
          "internalType": "string",
          "name": "_date",
          "type": "string"
        },
        {
          "internalType": "string",
          "name": "_bg",
          "type": "string"
        },
        {
          "internalType": "string",
          "name": "_location",
          "type": "string"
        },
        {
          "internalType": "string",
          "name": "_cid",
          "type": "string"
        }
      ],
      "name": "recipientSubmitDetails",
      "outputs": [],
      "stateMutability": "nonpayable",
      "type": "function"
    }
  ],
  "bytecode": "0x608060405234801561001057600080fd5b5061373b806100206000396000f3fe608060405234801561001057600080fd5b50600436106101005760003560e01c80638cc0539211610097578063bf9d5f2611610066578063bf9d5f261461033b578063d4966aae14610373578063ed51c824146103a7578063fa6a8305146103c357610100565b80638cc0539214610299578063993a04b7146102c9578063ad731055146102e7578063b99486c21461031f57610100565b806353ef30c5116100d357806353ef30c5146101cd57806366c72b531461020157806366c9457714610231578063677b772a1461026157610100565b80630f5f0ecb14610105578063377f29e7146101355780634ef437481461016557806353730b9f14610195575b600080fd5b61011f600480360381019061011a9190612ba6565b6103df565b60405161012c9190612c0a565b60405180910390f35b61014f600480360381019061014a9190612ba6565b610415565b60405161015c9190612dac565b60405180910390f35b61017f600480360381019061017a9190612ba6565b61089c565b60405161018c9190612c0a565b60405180910390f35b6101af60048036038101906101aa9190612ba6565b6108d2565b6040516101c499989796959493929190612e27565b60405180910390f35b6101e760048036038101906101e29190612ba6565b610cee565b6040516101f8959493929190612f26565b60405180910390f35b61021b60048036038101906102169190612ba6565b610ef2565b6040516102289190612c0a565b60405180910390f35b61024b60048036038101906102469190612ba6565b610f28565b604051610258919061307d565b60405180910390f35b61027b600480360381019061027691906130cb565b6113af565b60405161029099989796959493929190612e27565b60405180910390f35b6102b360048036038101906102ae91906130f8565b6117c5565b6040516102c09190612c0a565b60405180910390f35b6102d1611b09565b6040516102de9190613170565b60405180910390f35b61030160048036038101906102fc9190612ba6565b611b12565b60405161031699989796959493929190612e27565b60405180910390f35b6103396004803603810190610334919061318b565b611f2e565b005b610355600480360381019061035091906130cb565b61204f565b60405161036a99989796959493929190612e27565b60405180910390f35b61038d600480360381019061038891906130cb565b612465565b60405161039e959493929190612f26565b60405180910390f35b6103c160048036038101906103bc9190613319565b612663565b005b6103dd60048036038101906103d8919061318b565b612893565b005b6005818051602081018201805184825260208301602085012081835280955050505050506000915054906101000a900460ff1681565b61041d6129b4565b600115156004836040516104319190613410565b908152602001604051809103902060009054906101000a900460ff1615151461045957600080fd5b6007826040516104699190613410565b90815260200160405180910390206040518061012001604052908160008201805461049390613456565b80601f01602080910402602001604051908101604052809291908181526020018280546104bf90613456565b801561050c5780601f106104e15761010080835404028352916020019161050c565b820191906000526020600020905b8154815290600101906020018083116104ef57829003601f168201915b50505050508152602001600182015481526020016002820154815260200160038201805461053990613456565b80601f016020809104026020016040519081016040528092919081815260200182805461056590613456565b80156105b25780601f10610587576101008083540402835291602001916105b2565b820191906000526020600020905b81548152906001019060200180831161059557829003601f168201915b505050505081526020016004820180546105cb90613456565b80601f01602080910402602001604051908101604052809291908181526020018280546105f790613456565b80156106445780601f1061061957610100808354040283529160200191610644565b820191906000526020600020905b81548152906001019060200180831161062757829003601f168201915b5050505050815260200160058201805461065d90613456565b80601f016020809104026020016040519081016040528092919081815260200182805461068990613456565b80156106d65780601f106106ab576101008083540402835291602001916106d6565b820191906000526020600020905b8154815290600101906020018083116106b957829003601f168201915b505050505081526020016006820180546106ef90613456565b80601f016020809104026020016040519081016040528092919081815260200182805461071b90613456565b80156107685780601f1061073d57610100808354040283529160200191610768565b820191906000526020600020905b81548152906001019060200180831161074b57829003601f168201915b5050505050815260200160078201805461078190613456565b80601f01602080910402602001604051908101604052809291908181526020018280546107ad90613456565b80156107fa5780601f106107cf576101008083540402835291602001916107fa565b820191906000526020600020905b8154815290600101906020018083116107dd57829003601f168201915b5050505050815260200160088201805461081390613456565b80601f016020809104026020016040519081016040528092919081815260200182805461083f90613456565b801561088c5780601f106108615761010080835404028352916020019161088c565b820191906000526020600020905b81548152906001019060200180831161086f57829003601f168201915b5050505050815250509050919050565b6001818051602081018201805184825260208301602085012081835280955050505050506000915054906101000a900460ff1681565b60078180516020810182018051848252602083016020850120818352809550505050505060009150905080600001805461090b90613456565b80601f016020809104026020016040519081016040528092919081815260200182805461093790613456565b80156109845780601f1061095957610100808354040283529160200191610984565b820191906000526020600020905b81548152906001019060200180831161096757829003601f168201915b5050505050908060010154908060020154908060030180546109a590613456565b80601f01602080910402602001604051908101604052809291908181526020018280546109d190613456565b8015610a1e5780601f106109f357610100808354040283529160200191610a1e565b820191906000526020600020905b815481529060010190602001808311610a0157829003601f168201915b505050505090806004018054610a3390613456565b80601f0160208091040260200160405190810160405280929190818152602001828054610a5f90613456565b8015610aac5780601f10610a8157610100808354040283529160200191610aac565b820191906000526020600020905b815481529060010190602001808311610a8f57829003601f168201915b505050505090806005018054610ac190613456565b80601f0160208091040260200160405190810160405280929190818152602001828054610aed90613456565b8015610b3a5780601f10610b0f57610100808354040283529160200191610b3a565b820191906000526020600020905b815481529060010190602001808311610b1d57829003601f168201915b505050505090806006018054610b4f90613456565b80601f0160208091040260200160405190810160405280929190818152602001828054610b7b90613456565b8015610bc85780601f10610b9d57610100808354040283529160200191610bc8565b820191906000526020600020905b815481529060010190602001808311610bab57829003601f168201915b505050505090806007018054610bdd90613456565b80601f0160208091040260200160405190810160405280929190818152602001828054610c0990613456565b8015610c565780601f10610c2b57610100808354040283529160200191610c56565b820191906000526020600020905b815481529060010190602001808311610c3957829003601f168201915b505050505090806008018054610c6b90613456565b80601f0160208091040260200160405190810160405280929190818152602001828054610c9790613456565b8015610ce45780601f10610cb957610100808354040283529160200191610ce4565b820191906000526020600020905b815481529060010190602001808311610cc757829003601f168201915b5050505050905089565b600381805160208101820180518482526020830160208501208183528095505050505050600091509050806000018054610d2790613456565b80601f0160208091040260200160405190810160405280929190818152602001828054610d5390613456565b8015610da05780601f10610d7557610100808354040283529160200191610da0565b820191906000526020600020905b815481529060010190602001808311610d8357829003601f168201915b505050505090806001015490806002018054610dbb90613456565b80601f0160208091040260200160405190810160405280929190818152602001828054610de790613456565b8015610e345780601f10610e0957610100808354040283529160200191610e34565b820191906000526020600020905b815481529060010190602001808311610e1757829003601f168201915b505050505090806003018054610e4990613456565b80601f0160208091040260200160405190810160405280929190818152602001828054610e7590613456565b8015610ec25780601f10610e9757610100808354040283529160200191610ec2565b820191906000526020600020905b815481529060010190602001808311610ea557829003601f168201915b5050505050908060040160009054906101000a900473ffffffffffffffffffffffffffffffffffffffff16905085565b6004818051602081018201805184825260208301602085012081835280955050505050506000915054906101000a900460ff1681565b610f30612a00565b60011515600583604051610f449190613410565b908152602001604051809103902060009054906101000a900460ff16151514610f6c57600080fd5b600982604051610f7c9190613410565b908152602001604051809103902060405180610120016040529081600082018054610fa690613456565b80601f0160208091040260200160405190810160405280929190818152602001828054610fd290613456565b801561101f5780601f10610ff45761010080835404028352916020019161101f565b820191906000526020600020905b81548152906001019060200180831161100257829003601f168201915b50505050508152602001600182015481526020016002820154815260200160038201805461104c90613456565b80601f016020809104026020016040519081016040528092919081815260200182805461107890613456565b80156110c55780601f1061109a576101008083540402835291602001916110c5565b820191906000526020600020905b8154815290600101906020018083116110a857829003601f168201915b505050505081526020016004820180546110de90613456565b80601f016020809104026020016040519081016040528092919081815260200182805461110a90613456565b80156111575780601f1061112c57610100808354040283529160200191611157565b820191906000526020600020905b81548152906001019060200180831161113a57829003601f168201915b5050505050815260200160058201805461117090613456565b80601f016020809104026020016040519081016040528092919081815260200182805461119c90613456565b80156111e95780601f106111be576101008083540402835291602001916111e9565b820191906000526020600020905b8154815290600101906020018083116111cc57829003601f168201915b5050505050815260200160068201805461120290613456565b80601f016020809104026020016040519081016040528092919081815260200182805461122e90613456565b801561127b5780601f106112505761010080835404028352916020019161127b565b820191906000526020600020905b81548152906001019060200180831161125e57829003601f168201915b5050505050815260200160078201805461129490613456565b80601f01602080910402602001604051908101604052809291908181526020018280546112c090613456565b801561130d5780601f106112e25761010080835404028352916020019161130d565b820191906000526020600020905b8154815290600101906020018083116112f057829003601f168201915b5050505050815260200160088201805461132690613456565b80601f016020809104026020016040519081016040528092919081815260200182805461135290613456565b801561139f5780601f106113745761010080835404028352916020019161139f565b820191906000526020600020905b81548152906001019060200180831161138257829003601f168201915b5050505050815250509050919050565b600681815481106113bf57600080fd5b90600052602060002090600902016000915090508060000180546113e290613456565b80601f016020809104026020016040519081016040528092919081815260200182805461140e90613456565b801561145b5780601f106114305761010080835404028352916020019161145b565b820191906000526020600020905b81548152906001019060200180831161143e57829003601f168201915b50505050509080600101549080600201549080600301805461147c90613456565b80601f01602080910402602001604051908101604052809291908181526020018280546114a890613456565b80156114f55780601f106114ca576101008083540402835291602001916114f5565b820191906000526020600020905b8154815290600101906020018083116114d857829003601f168201915b50505050509080600401805461150a90613456565b80601f016020809104026020016040519081016040528092919081815260200182805461153690613456565b80156115835780601f1061155857610100808354040283529160200191611583565b820191906000526020600020905b81548152906001019060200180831161156657829003601f168201915b50505050509080600501805461159890613456565b80601f01602080910402602001604051908101604052809291908181526020018280546115c490613456565b80156116115780601f106115e657610100808354040283529160200191611611565b820191906000526020600020905b8154815290600101906020018083116115f457829003601f168201915b50505050509080600601805461162690613456565b80601f016020809104026020016040519081016040528092919081815260200182805461165290613456565b801561169f5780601f106116745761010080835404028352916020019161169f565b820191906000526020600020905b81548152906001019060200180831161168257829003601f168201915b5050505050908060070180546116b490613456565b80601f01602080910402602001604051908101604052809291908181526020018280546116e090613456565b801561172d5780601f106117025761010080835404028352916020019161172d565b820191906000526020600020905b81548152906001019060200180831161171057829003601f168201915b50505050509080600801805461174290613456565b80601f016020809104026020016040519081016040528092919081815260200182805461176e90613456565b80156117bb5780601f10611790576101008083540402835291602001916117bb565b820191906000526020600020905b81548152906001019060200180831161179e57829003601f168201915b5050505050905089565b6000600115156001846040516117db9190613410565b908152602001604051809103902060009054906101000a900460ff1615151461180357600080fd5b60006003846040516118159190613410565b90815260200160405180910390206040518060a001604052908160008201805461183e90613456565b80601f016020809104026020016040519081016040528092919081815260200182805461186a90613456565b80156118b75780601f1061188c576101008083540402835291602001916118b7565b820191906000526020600020905b81548152906001019060200180831161189a57829003601f168201915b50505050508152602001600182015481526020016002820180546118da90613456565b80601f016020809104026020016040519081016040528092919081815260200182805461190690613456565b80156119535780601f1061192857610100808354040283529160200191611953565b820191906000526020600020905b81548152906001019060200180831161193657829003601f168201915b5050505050815260200160038201805461196c90613456565b80601f016020809104026020016040519081016040528092919081815260200182805461199890613456565b80156119e55780601f106119ba576101008083540402835291602001916119e5565b820191906000526020600020905b8154815290600101906020018083116119c857829003601f168201915b505050505081526020016004820160009054906101000a900473ffffffffffffffffffffffffffffffffffffffff1673ffffffffffffffffffffffffffffffffffffffff1673ffffffffffffffffffffffffffffffffffffffff168152505090508060400151604051602001611a5b9190613410565b6040516020818303038152906040528051906020012084604051602001611a829190613410565b6040516020818303038152906040528051906020012014611aa257600080fd5b8060600151604051602001611ab79190613410565b6040516020818303038152906040528051906020012083604051602001611ade9190613410565b6040516020818303038152906040528051906020012014611afe57600080fd5b600191505092915050565b60008054905090565b600981805160208101820180518482526020830160208501208183528095505050505050600091509050806000018054611b4b90613456565b80601f0160208091040260200160405190810160405280929190818152602001828054611b7790613456565b8015611bc45780601f10611b9957610100808354040283529160200191611bc4565b820191906000526020600020905b815481529060010190602001808311611ba757829003601f168201915b505050505090806001015490806002015490806003018054611be590613456565b80601f0160208091040260200160405190810160405280929190818152602001828054611c1190613456565b8015611c5e5780601f10611c3357610100808354040283529160200191611c5e565b820191906000526020600020905b815481529060010190602001808311611c4157829003601f168201915b505050505090806004018054611c7390613456565b80601f0160208091040260200160405190810160405280929190818152602001828054611c9f90613456565b8015611cec5780601f10611cc157610100808354040283529160200191611cec565b820191906000526020600020905b815481529060010190602001808311611ccf57829003601f168201915b505050505090806005018054611d0190613456565b80601f0160208091040260200160405190810160405280929190818152602001828054611d2d90613456565b8015611d7a5780601f10611d4f57610100808354040283529160200191611d7a565b820191906000526020600020905b815481529060010190602001808311611d5d57829003601f168201915b505050505090806006018054611d8f90613456565b80601f0160208091040260200160405190810160405280929190818152602001828054611dbb90613456565b8015611e085780601f10611ddd57610100808354040283529160200191611e08565b820191906000526020600020905b815481529060010190602001808311611deb57829003601f168201915b505050505090806007018054611e1d90613456565b80601f0160208091040260200160405190810160405280929190818152602001828054611e4990613456565b8015611e965780601f10611e6b57610100808354040283529160200191611e96565b820191906000526020600020905b815481529060010190602001808311611e7957829003601f168201915b505050505090806008018054611eab90613456565b80601f0160208091040260200160405190810160405280929190818152602001828054611ed790613456565b8015611f245780601f10611ef957610100808354040283529160200191611f24565b820191906000526020600020905b815481529060010190602001808311611f0757829003601f168201915b5050505050905089565b60006040518061012001604052808a81526020018981526020018881526020018b81526020018781526020018681526020018581526020018481526020018381525090508060078b604051611f839190613410565b90815260200160405180910390206000820151816000019081611fa69190613633565b5060208201518160010155604082015181600201556060820151816003019081611fd09190613633565b506080820151816004019081611fe69190613633565b5060a0820151816005019081611ffc9190613633565b5060c08201518160060190816120129190613633565b5060e08201518160070190816120289190613633565b5061010082015181600801908161203f9190613633565b5090505050505050505050505050565b6008818154811061205f57600080fd5b906000526020600020906009020160009150905080600001805461208290613456565b80601f01602080910402602001604051908101604052809291908181526020018280546120ae90613456565b80156120fb5780601f106120d0576101008083540402835291602001916120fb565b820191906000526020600020905b8154815290600101906020018083116120de57829003601f168201915b50505050509080600101549080600201549080600301805461211c90613456565b80601f016020809104026020016040519081016040528092919081815260200182805461214890613456565b80156121955780601f1061216a57610100808354040283529160200191612195565b820191906000526020600020905b81548152906001019060200180831161217857829003601f168201915b5050505050908060040180546121aa90613456565b80601f01602080910402602001604051908101604052809291908181526020018280546121d690613456565b80156122235780601f106121f857610100808354040283529160200191612223565b820191906000526020600020905b81548152906001019060200180831161220657829003601f168201915b50505050509080600501805461223890613456565b80601f016020809104026020016040519081016040528092919081815260200182805461226490613456565b80156122b15780601f10612286576101008083540402835291602001916122b1565b820191906000526020600020905b81548152906001019060200180831161229457829003601f168201915b5050505050908060060180546122c690613456565b80601f01602080910402602001604051908101604052809291908181526020018280546122f290613456565b801561233f5780601f106123145761010080835404028352916020019161233f565b820191906000526020600020905b81548152906001019060200180831161232257829003601f168201915b50505050509080600701805461235490613456565b80601f016020809104026020016040519081016040528092919081815260200182805461238090613456565b80156123cd5780601f106123a2576101008083540402835291602001916123cd565b820191906000526020600020905b8154815290600101906020018083116123b057829003601f168201915b5050505050908060080180546123e290613456565b80601f016020809104026020016040519081016040528092919081815260200182805461240e90613456565b801561245b5780601f106124305761010080835404028352916020019161245b565b820191906000526020600020905b81548152906001019060200180831161243e57829003601f168201915b5050505050905089565b6002818154811061247557600080fd5b906000526020600020906005020160009150905080600001805461249890613456565b80601f01602080910402602001604051908101604052809291908181526020018280546124c490613456565b80156125115780601f106124e657610100808354040283529160200191612511565b820191906000526020600020905b8154815290600101906020018083116124f457829003601f168201915b50505050509080600101549080600201805461252c90613456565b80601f016020809104026020016040519081016040528092919081815260200182805461255890613456565b80156125a55780601f1061257a576101008083540402835291602001916125a5565b820191906000526020600020905b81548152906001019060200180831161258857829003601f168201915b5050505050908060030180546125ba90613456565b80601f01602080910402602001604051908101604052809291908181526020018280546125e690613456565b80156126335780601f1061260857610100808354040283529160200191612633565b820191906000526020600020905b81548152906001019060200180831161261657829003601f168201915b5050505050908060040160009054906101000a900473ffffffffffffffffffffffffffffffffffffffff16905085565b600015156001836040516126779190613410565b908152602001604051809103902060009054906101000a900460ff1615151461269f57600080fd5b600180836040516126b09190613410565b908152602001604051809103902060006101000a81548160ff02191690831515021790555060006040518060a001604052808681526020018581526020018481526020018381526020013373ffffffffffffffffffffffffffffffffffffffff168152509050600281908060018154018082558091505060019003906000526020600020906005020160009091909190915060008201518160000190816127579190613633565b506020820151816001015560408201518160020190816127779190613633565b50606082015181600301908161278d9190613633565b5060808201518160040160006101000a81548173ffffffffffffffffffffffffffffffffffffffff021916908373ffffffffffffffffffffffffffffffffffffffff1602179055505050806003846040516127e89190613410565b9081526020016040518091039020600082015181600001908161280b9190613633565b5060208201518160010155604082015181600201908161282b9190613633565b5060608201518160030190816128419190613633565b5060808201518160040160006101000a81548173ffffffffffffffffffffffffffffffffffffffff021916908373ffffffffffffffffffffffffffffffffffffffff1602179055509050505050505050565b60006040518061012001604052808a81526020018981526020018881526020018b81526020018781526020018681526020018581526020018481526020018381525090508060098b6040516128e89190613410565b9081526020016040518091039020600082015181600001908161290b9190613633565b50602082015181600101556040820151816002015560608201518160030190816129359190613633565b50608082015181600401908161294b9190613633565b5060a08201518160050190816129619190613633565b5060c08201518160060190816129779190613633565b5060e082015181600701908161298d9190613633565b506101008201518160080190816129a49190613633565b5090505050505050505050505050565b6040518061012001604052806060815260200160008152602001600081526020016060815260200160608152602001606081526020016060815260200160608152602001606081525090565b6040518061012001604052806060815260200160008152602001600081526020016060815260200160608152602001606081526020016060815260200160608152602001606081525090565b6000604051905090565b600080fd5b600080fd5b600080fd5b600080fd5b6000601f19601f8301169050919050565b7f4e487b7100000000000000000000000000000000000000000000000000000000600052604160045260246000fd5b612ab382612a6a565b810181811067ffffffffffffffff82111715612ad257612ad1612a7b565b5b80604052505050565b6000612ae5612a4c565b9050612af18282612aaa565b919050565b600067ffffffffffffffff821115612b1157612b10612a7b565b5b612b1a82612a6a565b9050602081019050919050565b82818337600083830152505050565b6000612b49612b4484612af6565b612adb565b905082815260208101848484011115612b6557612b64612a65565b5b612b70848285612b27565b509392505050565b600082601f830112612b8d57612b8c612a60565b5b8135612b9d848260208601612b36565b91505092915050565b600060208284031215612bbc57612bbb612a56565b5b600082013567ffffffffffffffff811115612bda57612bd9612a5b565b5b612be684828501612b78565b91505092915050565b60008115159050919050565b612c0481612bef565b82525050565b6000602082019050612c1f6000830184612bfb565b92915050565b600081519050919050565b600082825260208201905092915050565b60005b83811015612c5f578082015181840152602081019050612c44565b60008484015250505050565b6000612c7682612c25565b612c808185612c30565b9350612c90818560208601612c41565b612c9981612a6a565b840191505092915050565b6000819050919050565b612cb781612ca4565b82525050565b6000610120830160008301518482036000860152612cdb8282612c6b565b9150506020830151612cf06020860182612cae565b506040830151612d036040860182612cae565b5060608301518482036060860152612d1b8282612c6b565b91505060808301518482036080860152612d358282612c6b565b91505060a083015184820360a0860152612d4f8282612c6b565b91505060c083015184820360c0860152612d698282612c6b565b91505060e083015184820360e0860152612d838282612c6b565b915050610100830151848203610100860152612d9f8282612c6b565b9150508091505092915050565b60006020820190508181036000830152612dc68184612cbd565b905092915050565b600082825260208201905092915050565b6000612dea82612c25565b612df48185612dce565b9350612e04818560208601612c41565b612e0d81612a6a565b840191505092915050565b612e2181612ca4565b82525050565b6000610120820190508181036000830152612e42818c612ddf565b9050612e51602083018b612e18565b612e5e604083018a612e18565b8181036060830152612e708189612ddf565b90508181036080830152612e848188612ddf565b905081810360a0830152612e988187612ddf565b905081810360c0830152612eac8186612ddf565b905081810360e0830152612ec08185612ddf565b9050818103610100830152612ed58184612ddf565b90509a9950505050505050505050565b600073ffffffffffffffffffffffffffffffffffffffff82169050919050565b6000612f1082612ee5565b9050919050565b612f2081612f05565b82525050565b600060a0820190508181036000830152612f408188612ddf565b9050612f4f6020830187612e18565b8181036040830152612f618186612ddf565b90508181036060830152612f758185612ddf565b9050612f846080830184612f17565b9695505050505050565b6000610120830160008301518482036000860152612fac8282612c6b565b9150506020830151612fc16020860182612cae565b506040830151612fd46040860182612cae565b5060608301518482036060860152612fec8282612c6b565b915050608083015184820360808601526130068282612c6b565b91505060a083015184820360a08601526130208282612c6b565b91505060c083015184820360c086015261303a8282612c6b565b91505060e083015184820360e08601526130548282612c6b565b9150506101008301518482036101008601526130708282612c6b565b9150508091505092915050565b600060208201905081810360008301526130978184612f8e565b905092915050565b6130a881612ca4565b81146130b357600080fd5b50565b6000813590506130c58161309f565b92915050565b6000602082840312156130e1576130e0612a56565b5b60006130ef848285016130b6565b91505092915050565b6000806040838503121561310f5761310e612a56565b5b600083013567ffffffffffffffff81111561312d5761312c612a5b565b5b61313985828601612b78565b925050602083013567ffffffffffffffff81111561315a57613159612a5b565b5b61316685828601612b78565b9150509250929050565b60006020820190506131856000830184612e18565b92915050565b60008060008060008060008060006101208a8c0312156131ae576131ad612a56565b5b60008a013567ffffffffffffffff8111156131cc576131cb612a5b565b5b6131d88c828d01612b78565b99505060208a013567ffffffffffffffff8111156131f9576131f8612a5b565b5b6132058c828d01612b78565b98505060406132168c828d016130b6565b97505060606132278c828d016130b6565b96505060808a013567ffffffffffffffff81111561324857613247612a5b565b5b6132548c828d01612b78565b95505060a08a013567ffffffffffffffff81111561327557613274612a5b565b5b6132818c828d01612b78565b94505060c08a013567ffffffffffffffff8111156132a2576132a1612a5b565b5b6132ae8c828d01612b78565b93505060e08a013567ffffffffffffffff8111156132cf576132ce612a5b565b5b6132db8c828d01612b78565b9250506101008a013567ffffffffffffffff8111156132fd576132fc612a5b565b5b6133098c828d01612b78565b9150509295985092959850929598565b6000806000806080858703121561333357613332612a56565b5b600085013567ffffffffffffffff81111561335157613350612a5b565b5b61335d87828801612b78565b945050602061336e878288016130b6565b935050604085013567ffffffffffffffff81111561338f5761338e612a5b565b5b61339b87828801612b78565b925050606085013567ffffffffffffffff8111156133bc576133bb612a5b565b5b6133c887828801612b78565b91505092959194509250565b600081905092915050565b60006133ea82612c25565b6133f481856133d4565b9350613404818560208601612c41565b80840191505092915050565b600061341c82846133df565b915081905092915050565b7f4e487b7100000000000000000000000000000000000000000000000000000000600052602260045260246000fd5b6000600282049050600182168061346e57607f821691505b60208210810361348157613480613427565b5b50919050565b60008190508160005260206000209050919050565b60006020601f8301049050919050565b600082821b905092915050565b6000600883026134e97fffffffffffffffffffffffffffffffffffffffffffffffffffffffffffffffff826134ac565b6134f386836134ac565b95508019841693508086168417925050509392505050565b6000819050919050565b600061353061352b61352684612ca4565b61350b565b612ca4565b9050919050565b6000819050919050565b61354a83613515565b61355e61355682613537565b8484546134b9565b825550505050565b600090565b613573613566565b61357e818484613541565b505050565b5b818110156135a25761359760008261356b565b600181019050613584565b5050565b601f8211156135e7576135b881613487565b6135c18461349c565b810160208510156135d0578190505b6135e46135dc8561349c565b830182613583565b50505b505050565b600082821c905092915050565b600061360a600019846008026135ec565b1980831691505092915050565b600061362383836135f9565b9150826002028217905092915050565b61363c82612c25565b67ffffffffffffffff81111561365557613654612a7b565b5b61365f8254613456565b61366a8282856135a6565b600060209050601f83116001811461369d576000841561368b578287015190505b6136958582613617565b8655506136fd565b601f1984166136ab86613487565b60005b828110156136d3578489015182556001820191506020850194506020810190506136ae565b868310156136f057848901516136ec601f8916826135f9565b8355505b6001600288020188555050505b50505050505056fea26469706673582212209ec6d3e1aeaea8f53d8816446c3de6c9cdd4a0e3c2b514df7b6c1f696a7816ad64736f6c63430008120033",
  "immutableReferences": {},
  "source": "// SPDX-License-Identifier: MIT\r\npragma solidity >=0.4.22 <0.9.0;\r\n\r\ncontract organ {\r\n    uint256 a;\r\n\r\n    struct donor_account {\r\n        //account for donor\r\n        string name;\r\n        uint contact;\r\n        uint age;\r\n        string id;\r\n        string organs;\r\n        string date;\r\n        string donor_blood_group;\r\n        string donor_location;\r\n        string cid;\r\n    }\r\n\r\n    struct recipient_account {\r\n        string name;\r\n        uint contact;\r\n        uint age;\r\n        string id;\r\n        string date;\r\n        string organs_required;\r\n        string recipient_blood_group;\r\n        string recipient_location;\r\n        string recipient_cid;\r\n    }\r\n\r\n    struct doctor_account {\r\n        //account for doctor\r\n        string name;\r\n        uint contact;\r\n        string id;\r\n        string password;\r\n        address adrr;\r\n    }\r\n\r\n    mapping(string => bool) public is_doctor_registered; //username of registered doctors\r\n    doctor_account[] public doctor_register; //registered doctors\r\n    mapping(string => doctor_account) public registered_id; //maps usernames with accounts\r\n\r\n    mapping(string => bool) public is_donor_registered; //username of registered donors\r\n    mapping(string => bool) public is_recipient_registered; //username of registered recipients\r\n\r\n    donor_account[] public donor_register; //registered donors\r\n    mapping(string => donor_account) public donor_map; // mapping of donor id with donor account\r\n\r\n    recipient_account[] public recipient_register; //registered recipients\r\n    mapping(string => recipient_account) public recipient_map; // mapping of recipient id with recipient account\r\n\r\n    function getter() public view returns (uint256) {\r\n        return a;\r\n    }\r\n\r\n    function doctorSignUp(\r\n        string memory _name,\r\n        uint _contact,\r\n        string memory _id,\r\n        string memory _password\r\n    ) public {\r\n        require(is_doctor_registered[_id] == false);\r\n        is_doctor_registered[_id] = true;\r\n        doctor_account memory new_doctor = doctor_account(\r\n            _name,\r\n            _contact,\r\n            _id,\r\n            _password,\r\n            msg.sender\r\n        );\r\n        doctor_register.push(new_doctor);\r\n        registered_id[_id] = new_doctor;\r\n    }\r\n\r\n    function doctorSignIn(\r\n        string memory _id,\r\n        string memory _password\r\n    ) public view returns (bool) {\r\n        require(is_doctor_registered[_id] == true);\r\n        doctor_account memory current_account = registered_id[_id];\r\n        require(\r\n            keccak256(abi.encodePacked(_id)) ==\r\n                keccak256(abi.encodePacked(current_account.id))\r\n        );\r\n        require(\r\n            keccak256(abi.encodePacked(_password)) ==\r\n                keccak256(abi.encodePacked(current_account.password))\r\n        );\r\n        // require(keccak256(abi.encodePacked(msg.sender)) == keccak256(abi.encodePacked(current_account.adrr)));\r\n        return true;\r\n    }\r\n\r\n    function view_donor_details(\r\n        string memory _id\r\n    ) public view returns (donor_account memory) {\r\n        require(is_donor_registered[_id] == true);\r\n        return donor_map[_id];\r\n    }\r\n\r\n    function view_recipient_details(\r\n        string memory _id\r\n    ) public view returns (recipient_account memory) {\r\n        require(is_recipient_registered[_id] == true);\r\n        return recipient_map[_id];\r\n    }\r\n\r\n    function donorSubmitDetails(\r\n        string memory _id,\r\n        string memory _name,\r\n        uint _contact,\r\n        uint _age,\r\n        string memory _organ,\r\n        string memory _date,\r\n        string memory _bg,\r\n        string memory _location,\r\n        string memory _cid\r\n    ) public {\r\n        donor_account memory new_donoraccount = donor_account(\r\n            _name,\r\n            _contact,\r\n            _age,\r\n            _id,\r\n            _organ,\r\n            _date,\r\n            _bg,\r\n            _location,\r\n            _cid\r\n        );\r\n        donor_map[_id] = new_donoraccount; // key: id value: donor account details\r\n    }\r\n\r\n    function recipientSubmitDetails(\r\n        string memory _id,\r\n        string memory _name,\r\n        uint _contact,\r\n        uint _age,\r\n        string memory _organ,\r\n        string memory _date,\r\n        string memory _bg,\r\n        string memory _location,\r\n        string memory _cid\r\n    ) public {\r\n        recipient_account memory new_recipientaccount = recipient_account(\r\n            _name,\r\n            _contact,\r\n            _age,\r\n            _id,\r\n            _organ,\r\n            _date,\r\n            _bg,\r\n            _location,\r\n            _cid\r\n        );\r\n        recipient_map[_id] = new_recipientaccount; // key: id value: recipient account details\r\n    }\r\n}\r\n",
  "sourcePath": "C:\\Users\\tanis\\HealthIQ_Major\\contracts\\organ.sol",
  "compiler": {
    "name": "solc",
    "version": "0.8.18+commit.87f61d96.Emscripten.clang"
  },
  "schemaVersion": "3.4.16",
  "updatedAt": "2023-11-25T18:38:49.544Z",
  "networkType": "ethereum",
  "devdoc": {
    "kind": "dev",
    "methods": {},
    "version": 1
  },
  "userdoc": {
    "kind": "user",
    "methods": {},
    "version": 1
  }
}