{
  "contractName": "organ",
  "abi": [
    {
      "inputs": [
        {
          "internalType": "uint256",
          "name": "",
          "type": "uint256"
        }
      ],
      "name": "doctor_register",
      "outputs": [
        {
          "internalType": "string",
          "name": "name",
          "type": "string"
        },
        {
          "internalType": "uint256",
          "name": "contact",
          "type": "uint256"
        },
        {
          "internalType": "string",
          "name": "id",
          "type": "string"
        },
        {
          "internalType": "string",
          "name": "password",
          "type": "string"
        },
        {
          "internalType": "address",
          "name": "adrr",
          "type": "address"
        }
      ],
      "stateMutability": "view",
      "type": "function",
      "constant": true
    },
    {
      "inputs": [
        {
          "internalType": "string",
          "name": "",
          "type": "string"
        }
      ],
      "name": "donor_map",
      "outputs": [
        {
          "internalType": "string",
          "name": "name",
          "type": "string"
        },
        {
          "internalType": "uint256",
          "name": "contact",
          "type": "uint256"
        },
        {
          "internalType": "uint256",
          "name": "age",
          "type": "uint256"
        },
        {
          "internalType": "string",
          "name": "id",
          "type": "string"
        },
        {
          "internalType": "string",
          "name": "organs",
          "type": "string"
        },
        {
          "internalType": "string",
          "name": "date",
          "type": "string"
        },
        {
          "internalType": "string",
          "name": "donor_blood_group",
          "type": "string"
        },
        {
          "internalType": "string",
          "name": "donor_location",
          "type": "string"
        },
        {
          "internalType": "string",
          "name": "cid",
          "type": "string"
        }
      ],
      "stateMutability": "view",
      "type": "function",
      "constant": true
    },
    {
      "inputs": [
        {
          "internalType": "uint256",
          "name": "",
          "type": "uint256"
        }
      ],
      "name": "donor_register",
      "outputs": [
        {
          "internalType": "string",
          "name": "name",
          "type": "string"
        },
        {
          "internalType": "uint256",
          "name": "contact",
          "type": "uint256"
        },
        {
          "internalType": "uint256",
          "name": "age",
          "type": "uint256"
        },
        {
          "internalType": "string",
          "name": "id",
          "type": "string"
        },
        {
          "internalType": "string",
          "name": "organs",
          "type": "string"
        },
        {
          "internalType": "string",
          "name": "date",
          "type": "string"
        },
        {
          "internalType": "string",
          "name": "donor_blood_group",
          "type": "string"
        },
        {
          "internalType": "string",
          "name": "donor_location",
          "type": "string"
        },
        {
          "internalType": "string",
          "name": "cid",
          "type": "string"
        }
      ],
      "stateMutability": "view",
      "type": "function",
      "constant": true
    },
    {
      "inputs": [
        {
          "internalType": "string",
          "name": "",
          "type": "string"
        }
      ],
      "name": "is_doctor_registered",
      "outputs": [
        {
          "internalType": "bool",
          "name": "",
          "type": "bool"
        }
      ],
      "stateMutability": "view",
      "type": "function",
      "constant": true
    },
    {
      "inputs": [
        {
          "internalType": "string",
          "name": "",
          "type": "string"
        }
      ],
      "name": "is_donor_registered",
      "outputs": [
        {
          "internalType": "bool",
          "name": "",
          "type": "bool"
        }
      ],
      "stateMutability": "view",
      "type": "function",
      "constant": true
    },
    {
      "inputs": [
        {
          "internalType": "string",
          "name": "",
          "type": "string"
        }
      ],
      "name": "is_recipient_registered",
      "outputs": [
        {
          "internalType": "bool",
          "name": "",
          "type": "bool"
        }
      ],
      "stateMutability": "view",
      "type": "function",
      "constant": true
    },
    {
      "inputs": [
        {
          "internalType": "string",
          "name": "",
          "type": "string"
        }
      ],
      "name": "recipient_map",
      "outputs": [
        {
          "internalType": "string",
          "name": "name",
          "type": "string"
        },
        {
          "internalType": "uint256",
          "name": "contact",
          "type": "uint256"
        },
        {
          "internalType": "uint256",
          "name": "age",
          "type": "uint256"
        },
        {
          "internalType": "string",
          "name": "id",
          "type": "string"
        },
        {
          "internalType": "string",
          "name": "date",
          "type": "string"
        },
        {
          "internalType": "string",
          "name": "organs_required",
          "type": "string"
        },
        {
          "internalType": "string",
          "name": "recipient_blood_group",
          "type": "string"
        },
        {
          "internalType": "string",
          "name": "recipient_location",
          "type": "string"
        },
        {
          "internalType": "string",
          "name": "recipient_cid",
          "type": "string"
        }
      ],
      "stateMutability": "view",
      "type": "function",
      "constant": true
    },
    {
      "inputs": [
        {
          "internalType": "uint256",
          "name": "",
          "type": "uint256"
        }
      ],
      "name": "recipient_register",
      "outputs": [
        {
          "internalType": "string",
          "name": "name",
          "type": "string"
        },
        {
          "internalType": "uint256",
          "name": "contact",
          "type": "uint256"
        },
        {
          "internalType": "uint256",
          "name": "age",
          "type": "uint256"
        },
        {
          "internalType": "string",
          "name": "id",
          "type": "string"
        },
        {
          "internalType": "string",
          "name": "date",
          "type": "string"
        },
        {
          "internalType": "string",
          "name": "organs_required",
          "type": "string"
        },
        {
          "internalType": "string",
          "name": "recipient_blood_group",
          "type": "string"
        },
        {
          "internalType": "string",
          "name": "recipient_location",
          "type": "string"
        },
        {
          "internalType": "string",
          "name": "recipient_cid",
          "type": "string"
        }
      ],
      "stateMutability": "view",
      "type": "function",
      "constant": true
    },
    {
      "inputs": [
        {
          "internalType": "string",
          "name": "",
          "type": "string"
        }
      ],
      "name": "registered_id",
      "outputs": [
        {
          "internalType": "string",
          "name": "name",
          "type": "string"
        },
        {
          "internalType": "uint256",
          "name": "contact",
          "type": "uint256"
        },
        {
          "internalType": "string",
          "name": "id",
          "type": "string"
        },
        {
          "internalType": "string",
          "name": "password",
          "type": "string"
        },
        {
          "internalType": "address",
          "name": "adrr",
          "type": "address"
        }
      ],
      "stateMutability": "view",
      "type": "function",
      "constant": true
    },
    {
      "inputs": [],
      "name": "getter",
      "outputs": [
        {
          "internalType": "uint256",
          "name": "",
          "type": "uint256"
        }
      ],
      "stateMutability": "view",
      "type": "function",
      "constant": true
    },
    {
      "inputs": [
        {
          "internalType": "string",
          "name": "_name",
          "type": "string"
        },
        {
          "internalType": "uint256",
          "name": "_contact",
          "type": "uint256"
        },
        {
          "internalType": "string",
          "name": "_id",
          "type": "string"
        },
        {
          "internalType": "string",
          "name": "_password",
          "type": "string"
        }
      ],
      "name": "doctorSignUp",
      "outputs": [],
      "stateMutability": "nonpayable",
      "type": "function"
    },
    {
      "inputs": [
        {
          "internalType": "string",
          "name": "_id",
          "type": "string"
        },
        {
          "internalType": "string",
          "name": "_password",
          "type": "string"
        }
      ],
      "name": "doctorSignIn",
      "outputs": [
        {
          "internalType": "bool",
          "name": "",
          "type": "bool"
        }
      ],
      "stateMutability": "view",
      "type": "function",
      "constant": true
    },
    {
      "inputs": [],
      "name": "view_all_donors",
      "outputs": [
        {
          "components": [
            {
              "internalType": "string",
              "name": "name",
              "type": "string"
            },
            {
              "internalType": "uint256",
              "name": "contact",
              "type": "uint256"
            },
            {
              "internalType": "uint256",
              "name": "age",
              "type": "uint256"
            },
            {
              "internalType": "string",
              "name": "id",
              "type": "string"
            },
            {
              "internalType": "string",
              "name": "organs",
              "type": "string"
            },
            {
              "internalType": "string",
              "name": "date",
              "type": "string"
            },
            {
              "internalType": "string",
              "name": "donor_blood_group",
              "type": "string"
            },
            {
              "internalType": "string",
              "name": "donor_location",
              "type": "string"
            },
            {
              "internalType": "string",
              "name": "cid",
              "type": "string"
            }
          ],
          "internalType": "struct organ.donor_account[]",
          "name": "",
          "type": "tuple[]"
        }
      ],
      "stateMutability": "view",
      "type": "function",
      "constant": true
    },
    {
      "inputs": [
        {
          "internalType": "string",
          "name": "_id",
          "type": "string"
        }
      ],
      "name": "view_donor_details",
      "outputs": [
        {
          "components": [
            {
              "internalType": "string",
              "name": "name",
              "type": "string"
            },
            {
              "internalType": "uint256",
              "name": "contact",
              "type": "uint256"
            },
            {
              "internalType": "uint256",
              "name": "age",
              "type": "uint256"
            },
            {
              "internalType": "string",
              "name": "id",
              "type": "string"
            },
            {
              "internalType": "string",
              "name": "organs",
              "type": "string"
            },
            {
              "internalType": "string",
              "name": "date",
              "type": "string"
            },
            {
              "internalType": "string",
              "name": "donor_blood_group",
              "type": "string"
            },
            {
              "internalType": "string",
              "name": "donor_location",
              "type": "string"
            },
            {
              "internalType": "string",
              "name": "cid",
              "type": "string"
            }
          ],
          "internalType": "struct organ.donor_account",
          "name": "",
          "type": "tuple"
        }
      ],
      "stateMutability": "view",
      "type": "function",
      "constant": true
    },
    {
      "inputs": [
        {
          "internalType": "string",
          "name": "_id",
          "type": "string"
        }
      ],
      "name": "view_recipient_details",
      "outputs": [
        {
          "components": [
            {
              "internalType": "string",
              "name": "name",
              "type": "string"
            },
            {
              "internalType": "uint256",
              "name": "contact",
              "type": "uint256"
            },
            {
              "internalType": "uint256",
              "name": "age",
              "type": "uint256"
            },
            {
              "internalType": "string",
              "name": "id",
              "type": "string"
            },
            {
              "internalType": "string",
              "name": "date",
              "type": "string"
            },
            {
              "internalType": "string",
              "name": "organs_required",
              "type": "string"
            },
            {
              "internalType": "string",
              "name": "recipient_blood_group",
              "type": "string"
            },
            {
              "internalType": "string",
              "name": "recipient_location",
              "type": "string"
            },
            {
              "internalType": "string",
              "name": "recipient_cid",
              "type": "string"
            }
          ],
          "internalType": "struct organ.recipient_account",
          "name": "",
          "type": "tuple"
        }
      ],
      "stateMutability": "view",
      "type": "function",
      "constant": true
    },
    {
      "inputs": [
        {
          "internalType": "string",
          "name": "_id",
          "type": "string"
        },
        {
          "internalType": "string",
          "name": "_name",
          "type": "string"
        },
        {
          "internalType": "uint256",
          "name": "_contact",
          "type": "uint256"
        },
        {
          "internalType": "uint256",
          "name": "_age",
          "type": "uint256"
        },
        {
          "internalType": "string",
          "name": "_organ",
          "type": "string"
        },
        {
          "internalType": "string",
          "name": "_date",
          "type": "string"
        },
        {
          "internalType": "string",
          "name": "_bg",
          "type": "string"
        },
        {
          "internalType": "string",
          "name": "_location",
          "type": "string"
        },
        {
          "internalType": "string",
          "name": "_cid",
          "type": "string"
        }
      ],
      "name": "donorSubmitDetails",
      "outputs": [],
      "stateMutability": "nonpayable",
      "type": "function"
    },
    {
      "inputs": [
        {
          "internalType": "string",
          "name": "_id",
          "type": "string"
        },
        {
          "internalType": "string",
          "name": "_name",
          "type": "string"
        },
        {
          "internalType": "uint256",
          "name": "_contact",
          "type": "uint256"
        },
        {
          "internalType": "uint256",
          "name": "_age",
          "type": "uint256"
        },
        {
          "internalType": "string",
          "name": "_organ",
          "type": "string"
        },
        {
          "internalType": "string",
          "name": "_date",
          "type": "string"
        },
        {
          "internalType": "string",
          "name": "_bg",
          "type": "string"
        },
        {
          "internalType": "string",
          "name": "_location",
          "type": "string"
        },
        {
          "internalType": "string",
          "name": "_cid",
          "type": "string"
        }
      ],
      "name": "recipientSubmitDetails",
      "outputs": [],
      "stateMutability": "nonpayable",
      "type": "function"
    }
  ],
  "bytecode": "0x608060405234801561001057600080fd5b50613d31806100206000396000f3fe608060405234801561001057600080fd5b506004361061010b5760003560e01c80638cc05392116100a2578063bf9d5f2611610071578063bf9d5f2614610346578063d4966aae1461037e578063da72b409146103b2578063ed51c824146103d0578063fa6a8305146103ec5761010b565b80638cc05392146102a4578063993a04b7146102d4578063ad731055146102f2578063b99486c21461032a5761010b565b806353ef30c5116100de57806353ef30c5146101d857806366c72b531461020c57806366c945771461023c578063677b772a1461026c5761010b565b80630f5f0ecb14610110578063377f29e7146101405780634ef437481461017057806353730b9f146101a0575b600080fd5b61012a60048036038101906101259190612fc9565b610408565b604051610137919061302d565b60405180910390f35b61015a60048036038101906101559190612fc9565b61043e565b60405161016791906131cf565b60405180910390f35b61018a60048036038101906101859190612fc9565b610889565b604051610197919061302d565b60405180910390f35b6101ba60048036038101906101b59190612fc9565b6108bf565b6040516101cf9998979695949392919061324a565b60405180910390f35b6101f260048036038101906101ed9190612fc9565b610cdb565b604051610203959493929190613349565b60405180910390f35b61022660048036038101906102219190612fc9565b610edf565b604051610233919061302d565b60405180910390f35b61025660048036038101906102519190612fc9565b610f15565b60405161026391906134a0565b60405180910390f35b610286600480360381019061028191906134ee565b611360565b60405161029b9998979695949392919061324a565b60405180910390f35b6102be60048036038101906102b9919061351b565b611776565b6040516102cb919061302d565b60405180910390f35b6102dc611aba565b6040516102e99190613593565b60405180910390f35b61030c60048036038101906103079190612fc9565b611ac3565b6040516103219998979695949392919061324a565b60405180910390f35b610344600480360381019061033f91906135ae565b611edf565b005b610360600480360381019061035b91906134ee565b612000565b6040516103759998979695949392919061324a565b60405180910390f35b610398600480360381019061039391906134ee565b612416565b6040516103a9959493929190613349565b60405180910390f35b6103ba612614565b6040516103c791906138ed565b60405180910390f35b6103ea60048036038101906103e5919061390f565b612a86565b005b610406600480360381019061040191906135ae565b612cb6565b005b6005818051602081018201805184825260208301602085012081835280955050505050506000915054906101000a900460ff1681565b610446612dd7565b6007826040516104569190613a06565b90815260200160405180910390206040518061012001604052908160008201805461048090613a4c565b80601f01602080910402602001604051908101604052809291908181526020018280546104ac90613a4c565b80156104f95780601f106104ce576101008083540402835291602001916104f9565b820191906000526020600020905b8154815290600101906020018083116104dc57829003601f168201915b50505050508152602001600182015481526020016002820154815260200160038201805461052690613a4c565b80601f016020809104026020016040519081016040528092919081815260200182805461055290613a4c565b801561059f5780601f106105745761010080835404028352916020019161059f565b820191906000526020600020905b81548152906001019060200180831161058257829003601f168201915b505050505081526020016004820180546105b890613a4c565b80601f01602080910402602001604051908101604052809291908181526020018280546105e490613a4c565b80156106315780601f1061060657610100808354040283529160200191610631565b820191906000526020600020905b81548152906001019060200180831161061457829003601f168201915b5050505050815260200160058201805461064a90613a4c565b80601f016020809104026020016040519081016040528092919081815260200182805461067690613a4c565b80156106c35780601f10610698576101008083540402835291602001916106c3565b820191906000526020600020905b8154815290600101906020018083116106a657829003601f168201915b505050505081526020016006820180546106dc90613a4c565b80601f016020809104026020016040519081016040528092919081815260200182805461070890613a4c565b80156107555780601f1061072a57610100808354040283529160200191610755565b820191906000526020600020905b81548152906001019060200180831161073857829003601f168201915b5050505050815260200160078201805461076e90613a4c565b80601f016020809104026020016040519081016040528092919081815260200182805461079a90613a4c565b80156107e75780601f106107bc576101008083540402835291602001916107e7565b820191906000526020600020905b8154815290600101906020018083116107ca57829003601f168201915b5050505050815260200160088201805461080090613a4c565b80601f016020809104026020016040519081016040528092919081815260200182805461082c90613a4c565b80156108795780601f1061084e57610100808354040283529160200191610879565b820191906000526020600020905b81548152906001019060200180831161085c57829003601f168201915b5050505050815250509050919050565b6001818051602081018201805184825260208301602085012081835280955050505050506000915054906101000a900460ff1681565b6007818051602081018201805184825260208301602085012081835280955050505050506000915090508060000180546108f890613a4c565b80601f016020809104026020016040519081016040528092919081815260200182805461092490613a4c565b80156109715780601f1061094657610100808354040283529160200191610971565b820191906000526020600020905b81548152906001019060200180831161095457829003601f168201915b50505050509080600101549080600201549080600301805461099290613a4c565b80601f01602080910402602001604051908101604052809291908181526020018280546109be90613a4c565b8015610a0b5780601f106109e057610100808354040283529160200191610a0b565b820191906000526020600020905b8154815290600101906020018083116109ee57829003601f168201915b505050505090806004018054610a2090613a4c565b80601f0160208091040260200160405190810160405280929190818152602001828054610a4c90613a4c565b8015610a995780601f10610a6e57610100808354040283529160200191610a99565b820191906000526020600020905b815481529060010190602001808311610a7c57829003601f168201915b505050505090806005018054610aae90613a4c565b80601f0160208091040260200160405190810160405280929190818152602001828054610ada90613a4c565b8015610b275780601f10610afc57610100808354040283529160200191610b27565b820191906000526020600020905b815481529060010190602001808311610b0a57829003601f168201915b505050505090806006018054610b3c90613a4c565b80601f0160208091040260200160405190810160405280929190818152602001828054610b6890613a4c565b8015610bb55780601f10610b8a57610100808354040283529160200191610bb5565b820191906000526020600020905b815481529060010190602001808311610b9857829003601f168201915b505050505090806007018054610bca90613a4c565b80601f0160208091040260200160405190810160405280929190818152602001828054610bf690613a4c565b8015610c435780601f10610c1857610100808354040283529160200191610c43565b820191906000526020600020905b815481529060010190602001808311610c2657829003601f168201915b505050505090806008018054610c5890613a4c565b80601f0160208091040260200160405190810160405280929190818152602001828054610c8490613a4c565b8015610cd15780601f10610ca657610100808354040283529160200191610cd1565b820191906000526020600020905b815481529060010190602001808311610cb457829003601f168201915b5050505050905089565b600381805160208101820180518482526020830160208501208183528095505050505050600091509050806000018054610d1490613a4c565b80601f0160208091040260200160405190810160405280929190818152602001828054610d4090613a4c565b8015610d8d5780601f10610d6257610100808354040283529160200191610d8d565b820191906000526020600020905b815481529060010190602001808311610d7057829003601f168201915b505050505090806001015490806002018054610da890613a4c565b80601f0160208091040260200160405190810160405280929190818152602001828054610dd490613a4c565b8015610e215780601f10610df657610100808354040283529160200191610e21565b820191906000526020600020905b815481529060010190602001808311610e0457829003601f168201915b505050505090806003018054610e3690613a4c565b80601f0160208091040260200160405190810160405280929190818152602001828054610e6290613a4c565b8015610eaf5780601f10610e8457610100808354040283529160200191610eaf565b820191906000526020600020905b815481529060010190602001808311610e9257829003601f168201915b5050505050908060040160009054906101000a900473ffffffffffffffffffffffffffffffffffffffff16905085565b6004818051602081018201805184825260208301602085012081835280955050505050506000915054906101000a900460ff1681565b610f1d612e23565b600982604051610f2d9190613a06565b908152602001604051809103902060405180610120016040529081600082018054610f5790613a4c565b80601f0160208091040260200160405190810160405280929190818152602001828054610f8390613a4c565b8015610fd05780601f10610fa557610100808354040283529160200191610fd0565b820191906000526020600020905b815481529060010190602001808311610fb357829003601f168201915b505050505081526020016001820154815260200160028201548152602001600382018054610ffd90613a4c565b80601f016020809104026020016040519081016040528092919081815260200182805461102990613a4c565b80156110765780601f1061104b57610100808354040283529160200191611076565b820191906000526020600020905b81548152906001019060200180831161105957829003601f168201915b5050505050815260200160048201805461108f90613a4c565b80601f01602080910402602001604051908101604052809291908181526020018280546110bb90613a4c565b80156111085780601f106110dd57610100808354040283529160200191611108565b820191906000526020600020905b8154815290600101906020018083116110eb57829003601f168201915b5050505050815260200160058201805461112190613a4c565b80601f016020809104026020016040519081016040528092919081815260200182805461114d90613a4c565b801561119a5780601f1061116f5761010080835404028352916020019161119a565b820191906000526020600020905b81548152906001019060200180831161117d57829003601f168201915b505050505081526020016006820180546111b390613a4c565b80601f01602080910402602001604051908101604052809291908181526020018280546111df90613a4c565b801561122c5780601f106112015761010080835404028352916020019161122c565b820191906000526020600020905b81548152906001019060200180831161120f57829003601f168201915b5050505050815260200160078201805461124590613a4c565b80601f016020809104026020016040519081016040528092919081815260200182805461127190613a4c565b80156112be5780601f10611293576101008083540402835291602001916112be565b820191906000526020600020905b8154815290600101906020018083116112a157829003601f168201915b505050505081526020016008820180546112d790613a4c565b80601f016020809104026020016040519081016040528092919081815260200182805461130390613a4c565b80156113505780601f1061132557610100808354040283529160200191611350565b820191906000526020600020905b81548152906001019060200180831161133357829003601f168201915b5050505050815250509050919050565b6006818154811061137057600080fd5b906000526020600020906009020160009150905080600001805461139390613a4c565b80601f01602080910402602001604051908101604052809291908181526020018280546113bf90613a4c565b801561140c5780601f106113e15761010080835404028352916020019161140c565b820191906000526020600020905b8154815290600101906020018083116113ef57829003601f168201915b50505050509080600101549080600201549080600301805461142d90613a4c565b80601f016020809104026020016040519081016040528092919081815260200182805461145990613a4c565b80156114a65780601f1061147b576101008083540402835291602001916114a6565b820191906000526020600020905b81548152906001019060200180831161148957829003601f168201915b5050505050908060040180546114bb90613a4c565b80601f01602080910402602001604051908101604052809291908181526020018280546114e790613a4c565b80156115345780601f1061150957610100808354040283529160200191611534565b820191906000526020600020905b81548152906001019060200180831161151757829003601f168201915b50505050509080600501805461154990613a4c565b80601f016020809104026020016040519081016040528092919081815260200182805461157590613a4c565b80156115c25780601f10611597576101008083540402835291602001916115c2565b820191906000526020600020905b8154815290600101906020018083116115a557829003601f168201915b5050505050908060060180546115d790613a4c565b80601f016020809104026020016040519081016040528092919081815260200182805461160390613a4c565b80156116505780601f1061162557610100808354040283529160200191611650565b820191906000526020600020905b81548152906001019060200180831161163357829003601f168201915b50505050509080600701805461166590613a4c565b80601f016020809104026020016040519081016040528092919081815260200182805461169190613a4c565b80156116de5780601f106116b3576101008083540402835291602001916116de565b820191906000526020600020905b8154815290600101906020018083116116c157829003601f168201915b5050505050908060080180546116f390613a4c565b80601f016020809104026020016040519081016040528092919081815260200182805461171f90613a4c565b801561176c5780601f106117415761010080835404028352916020019161176c565b820191906000526020600020905b81548152906001019060200180831161174f57829003601f168201915b5050505050905089565b60006001151560018460405161178c9190613a06565b908152602001604051809103902060009054906101000a900460ff161515146117b457600080fd5b60006003846040516117c69190613a06565b90815260200160405180910390206040518060a00160405290816000820180546117ef90613a4c565b80601f016020809104026020016040519081016040528092919081815260200182805461181b90613a4c565b80156118685780601f1061183d57610100808354040283529160200191611868565b820191906000526020600020905b81548152906001019060200180831161184b57829003601f168201915b505050505081526020016001820154815260200160028201805461188b90613a4c565b80601f01602080910402602001604051908101604052809291908181526020018280546118b790613a4c565b80156119045780601f106118d957610100808354040283529160200191611904565b820191906000526020600020905b8154815290600101906020018083116118e757829003601f168201915b5050505050815260200160038201805461191d90613a4c565b80601f016020809104026020016040519081016040528092919081815260200182805461194990613a4c565b80156119965780601f1061196b57610100808354040283529160200191611996565b820191906000526020600020905b81548152906001019060200180831161197957829003601f168201915b505050505081526020016004820160009054906101000a900473ffffffffffffffffffffffffffffffffffffffff1673ffffffffffffffffffffffffffffffffffffffff1673ffffffffffffffffffffffffffffffffffffffff168152505090508060400151604051602001611a0c9190613a06565b6040516020818303038152906040528051906020012084604051602001611a339190613a06565b6040516020818303038152906040528051906020012014611a5357600080fd5b8060600151604051602001611a689190613a06565b6040516020818303038152906040528051906020012083604051602001611a8f9190613a06565b6040516020818303038152906040528051906020012014611aaf57600080fd5b600191505092915050565b60008054905090565b600981805160208101820180518482526020830160208501208183528095505050505050600091509050806000018054611afc90613a4c565b80601f0160208091040260200160405190810160405280929190818152602001828054611b2890613a4c565b8015611b755780601f10611b4a57610100808354040283529160200191611b75565b820191906000526020600020905b815481529060010190602001808311611b5857829003601f168201915b505050505090806001015490806002015490806003018054611b9690613a4c565b80601f0160208091040260200160405190810160405280929190818152602001828054611bc290613a4c565b8015611c0f5780601f10611be457610100808354040283529160200191611c0f565b820191906000526020600020905b815481529060010190602001808311611bf257829003601f168201915b505050505090806004018054611c2490613a4c565b80601f0160208091040260200160405190810160405280929190818152602001828054611c5090613a4c565b8015611c9d5780601f10611c7257610100808354040283529160200191611c9d565b820191906000526020600020905b815481529060010190602001808311611c8057829003601f168201915b505050505090806005018054611cb290613a4c565b80601f0160208091040260200160405190810160405280929190818152602001828054611cde90613a4c565b8015611d2b5780601f10611d0057610100808354040283529160200191611d2b565b820191906000526020600020905b815481529060010190602001808311611d0e57829003601f168201915b505050505090806006018054611d4090613a4c565b80601f0160208091040260200160405190810160405280929190818152602001828054611d6c90613a4c565b8015611db95780601f10611d8e57610100808354040283529160200191611db9565b820191906000526020600020905b815481529060010190602001808311611d9c57829003601f168201915b505050505090806007018054611dce90613a4c565b80601f0160208091040260200160405190810160405280929190818152602001828054611dfa90613a4c565b8015611e475780601f10611e1c57610100808354040283529160200191611e47565b820191906000526020600020905b815481529060010190602001808311611e2a57829003601f168201915b505050505090806008018054611e5c90613a4c565b80601f0160208091040260200160405190810160405280929190818152602001828054611e8890613a4c565b8015611ed55780601f10611eaa57610100808354040283529160200191611ed5565b820191906000526020600020905b815481529060010190602001808311611eb857829003601f168201915b5050505050905089565b60006040518061012001604052808a81526020018981526020018881526020018b81526020018781526020018681526020018581526020018481526020018381525090508060078b604051611f349190613a06565b90815260200160405180910390206000820151816000019081611f579190613c29565b5060208201518160010155604082015181600201556060820151816003019081611f819190613c29565b506080820151816004019081611f979190613c29565b5060a0820151816005019081611fad9190613c29565b5060c0820151816006019081611fc39190613c29565b5060e0820151816007019081611fd99190613c29565b50610100820151816008019081611ff09190613c29565b5090505050505050505050505050565b6008818154811061201057600080fd5b906000526020600020906009020160009150905080600001805461203390613a4c565b80601f016020809104026020016040519081016040528092919081815260200182805461205f90613a4c565b80156120ac5780601f10612081576101008083540402835291602001916120ac565b820191906000526020600020905b81548152906001019060200180831161208f57829003601f168201915b5050505050908060010154908060020154908060030180546120cd90613a4c565b80601f01602080910402602001604051908101604052809291908181526020018280546120f990613a4c565b80156121465780601f1061211b57610100808354040283529160200191612146565b820191906000526020600020905b81548152906001019060200180831161212957829003601f168201915b50505050509080600401805461215b90613a4c565b80601f016020809104026020016040519081016040528092919081815260200182805461218790613a4c565b80156121d45780601f106121a9576101008083540402835291602001916121d4565b820191906000526020600020905b8154815290600101906020018083116121b757829003601f168201915b5050505050908060050180546121e990613a4c565b80601f016020809104026020016040519081016040528092919081815260200182805461221590613a4c565b80156122625780601f1061223757610100808354040283529160200191612262565b820191906000526020600020905b81548152906001019060200180831161224557829003601f168201915b50505050509080600601805461227790613a4c565b80601f01602080910402602001604051908101604052809291908181526020018280546122a390613a4c565b80156122f05780601f106122c5576101008083540402835291602001916122f0565b820191906000526020600020905b8154815290600101906020018083116122d357829003601f168201915b50505050509080600701805461230590613a4c565b80601f016020809104026020016040519081016040528092919081815260200182805461233190613a4c565b801561237e5780601f106123535761010080835404028352916020019161237e565b820191906000526020600020905b81548152906001019060200180831161236157829003601f168201915b50505050509080600801805461239390613a4c565b80601f01602080910402602001604051908101604052809291908181526020018280546123bf90613a4c565b801561240c5780601f106123e15761010080835404028352916020019161240c565b820191906000526020600020905b8154815290600101906020018083116123ef57829003601f168201915b5050505050905089565b6002818154811061242657600080fd5b906000526020600020906005020160009150905080600001805461244990613a4c565b80601f016020809104026020016040519081016040528092919081815260200182805461247590613a4c565b80156124c25780601f10612497576101008083540402835291602001916124c2565b820191906000526020600020905b8154815290600101906020018083116124a557829003601f168201915b5050505050908060010154908060020180546124dd90613a4c565b80601f016020809104026020016040519081016040528092919081815260200182805461250990613a4c565b80156125565780601f1061252b57610100808354040283529160200191612556565b820191906000526020600020905b81548152906001019060200180831161253957829003601f168201915b50505050509080600301805461256b90613a4c565b80601f016020809104026020016040519081016040528092919081815260200182805461259790613a4c565b80156125e45780601f106125b9576101008083540402835291602001916125e4565b820191906000526020600020905b8154815290600101906020018083116125c757829003601f168201915b5050505050908060040160009054906101000a900473ffffffffffffffffffffffffffffffffffffffff16905085565b60606006805480602002602001604051908101604052809291908181526020016000905b82821015612a7d57838290600052602060002090600902016040518061012001604052908160008201805461266c90613a4c565b80601f016020809104026020016040519081016040528092919081815260200182805461269890613a4c565b80156126e55780601f106126ba576101008083540402835291602001916126e5565b820191906000526020600020905b8154815290600101906020018083116126c857829003601f168201915b50505050508152602001600182015481526020016002820154815260200160038201805461271290613a4c565b80601f016020809104026020016040519081016040528092919081815260200182805461273e90613a4c565b801561278b5780601f106127605761010080835404028352916020019161278b565b820191906000526020600020905b81548152906001019060200180831161276e57829003601f168201915b505050505081526020016004820180546127a490613a4c565b80601f01602080910402602001604051908101604052809291908181526020018280546127d090613a4c565b801561281d5780601f106127f25761010080835404028352916020019161281d565b820191906000526020600020905b81548152906001019060200180831161280057829003601f168201915b5050505050815260200160058201805461283690613a4c565b80601f016020809104026020016040519081016040528092919081815260200182805461286290613a4c565b80156128af5780601f10612884576101008083540402835291602001916128af565b820191906000526020600020905b81548152906001019060200180831161289257829003601f168201915b505050505081526020016006820180546128c890613a4c565b80601f01602080910402602001604051908101604052809291908181526020018280546128f490613a4c565b80156129415780601f1061291657610100808354040283529160200191612941565b820191906000526020600020905b81548152906001019060200180831161292457829003601f168201915b5050505050815260200160078201805461295a90613a4c565b80601f016020809104026020016040519081016040528092919081815260200182805461298690613a4c565b80156129d35780601f106129a8576101008083540402835291602001916129d3565b820191906000526020600020905b8154815290600101906020018083116129b657829003601f168201915b505050505081526020016008820180546129ec90613a4c565b80601f0160208091040260200160405190810160405280929190818152602001828054612a1890613a4c565b8015612a655780601f10612a3a57610100808354040283529160200191612a65565b820191906000526020600020905b815481529060010190602001808311612a4857829003601f168201915b50505050508152505081526020019060010190612638565b50505050905090565b60001515600183604051612a9a9190613a06565b908152602001604051809103902060009054906101000a900460ff16151514612ac257600080fd5b60018083604051612ad39190613a06565b908152602001604051809103902060006101000a81548160ff02191690831515021790555060006040518060a001604052808681526020018581526020018481526020018381526020013373ffffffffffffffffffffffffffffffffffffffff16815250905060028190806001815401808255809150506001900390600052602060002090600502016000909190919091506000820151816000019081612b7a9190613c29565b50602082015181600101556040820151816002019081612b9a9190613c29565b506060820151816003019081612bb09190613c29565b5060808201518160040160006101000a81548173ffffffffffffffffffffffffffffffffffffffff021916908373ffffffffffffffffffffffffffffffffffffffff160217905550505080600384604051612c0b9190613a06565b90815260200160405180910390206000820151816000019081612c2e9190613c29565b50602082015181600101556040820151816002019081612c4e9190613c29565b506060820151816003019081612c649190613c29565b5060808201518160040160006101000a81548173ffffffffffffffffffffffffffffffffffffffff021916908373ffffffffffffffffffffffffffffffffffffffff1602179055509050505050505050565b60006040518061012001604052808a81526020018981526020018881526020018b81526020018781526020018681526020018581526020018481526020018381525090508060098b604051612d0b9190613a06565b90815260200160405180910390206000820151816000019081612d2e9190613c29565b5060208201518160010155604082015181600201556060820151816003019081612d589190613c29565b506080820151816004019081612d6e9190613c29565b5060a0820151816005019081612d849190613c29565b5060c0820151816006019081612d9a9190613c29565b5060e0820151816007019081612db09190613c29565b50610100820151816008019081612dc79190613c29565b5090505050505050505050505050565b6040518061012001604052806060815260200160008152602001600081526020016060815260200160608152602001606081526020016060815260200160608152602001606081525090565b6040518061012001604052806060815260200160008152602001600081526020016060815260200160608152602001606081526020016060815260200160608152602001606081525090565b6000604051905090565b600080fd5b600080fd5b600080fd5b600080fd5b6000601f19601f8301169050919050565b7f4e487b7100000000000000000000000000000000000000000000000000000000600052604160045260246000fd5b612ed682612e8d565b810181811067ffffffffffffffff82111715612ef557612ef4612e9e565b5b80604052505050565b6000612f08612e6f565b9050612f148282612ecd565b919050565b600067ffffffffffffffff821115612f3457612f33612e9e565b5b612f3d82612e8d565b9050602081019050919050565b82818337600083830152505050565b6000612f6c612f6784612f19565b612efe565b905082815260208101848484011115612f8857612f87612e88565b5b612f93848285612f4a565b509392505050565b600082601f830112612fb057612faf612e83565b5b8135612fc0848260208601612f59565b91505092915050565b600060208284031215612fdf57612fde612e79565b5b600082013567ffffffffffffffff811115612ffd57612ffc612e7e565b5b61300984828501612f9b565b91505092915050565b60008115159050919050565b61302781613012565b82525050565b6000602082019050613042600083018461301e565b92915050565b600081519050919050565b600082825260208201905092915050565b60005b83811015613082578082015181840152602081019050613067565b60008484015250505050565b600061309982613048565b6130a38185613053565b93506130b3818560208601613064565b6130bc81612e8d565b840191505092915050565b6000819050919050565b6130da816130c7565b82525050565b60006101208301600083015184820360008601526130fe828261308e565b915050602083015161311360208601826130d1565b50604083015161312660408601826130d1565b506060830151848203606086015261313e828261308e565b91505060808301518482036080860152613158828261308e565b91505060a083015184820360a0860152613172828261308e565b91505060c083015184820360c086015261318c828261308e565b91505060e083015184820360e08601526131a6828261308e565b9150506101008301518482036101008601526131c2828261308e565b9150508091505092915050565b600060208201905081810360008301526131e981846130e0565b905092915050565b600082825260208201905092915050565b600061320d82613048565b61321781856131f1565b9350613227818560208601613064565b61323081612e8d565b840191505092915050565b613244816130c7565b82525050565b6000610120820190508181036000830152613265818c613202565b9050613274602083018b61323b565b613281604083018a61323b565b81810360608301526132938189613202565b905081810360808301526132a78188613202565b905081810360a08301526132bb8187613202565b905081810360c08301526132cf8186613202565b905081810360e08301526132e38185613202565b90508181036101008301526132f88184613202565b90509a9950505050505050505050565b600073ffffffffffffffffffffffffffffffffffffffff82169050919050565b600061333382613308565b9050919050565b61334381613328565b82525050565b600060a08201905081810360008301526133638188613202565b9050613372602083018761323b565b81810360408301526133848186613202565b905081810360608301526133988185613202565b90506133a7608083018461333a565b9695505050505050565b60006101208301600083015184820360008601526133cf828261308e565b91505060208301516133e460208601826130d1565b5060408301516133f760408601826130d1565b506060830151848203606086015261340f828261308e565b91505060808301518482036080860152613429828261308e565b91505060a083015184820360a0860152613443828261308e565b91505060c083015184820360c086015261345d828261308e565b91505060e083015184820360e0860152613477828261308e565b915050610100830151848203610100860152613493828261308e565b9150508091505092915050565b600060208201905081810360008301526134ba81846133b1565b905092915050565b6134cb816130c7565b81146134d657600080fd5b50565b6000813590506134e8816134c2565b92915050565b60006020828403121561350457613503612e79565b5b6000613512848285016134d9565b91505092915050565b6000806040838503121561353257613531612e79565b5b600083013567ffffffffffffffff8111156135505761354f612e7e565b5b61355c85828601612f9b565b925050602083013567ffffffffffffffff81111561357d5761357c612e7e565b5b61358985828601612f9b565b9150509250929050565b60006020820190506135a8600083018461323b565b92915050565b60008060008060008060008060006101208a8c0312156135d1576135d0612e79565b5b60008a013567ffffffffffffffff8111156135ef576135ee612e7e565b5b6135fb8c828d01612f9b565b99505060208a013567ffffffffffffffff81111561361c5761361b612e7e565b5b6136288c828d01612f9b565b98505060406136398c828d016134d9565b975050606061364a8c828d016134d9565b96505060808a013567ffffffffffffffff81111561366b5761366a612e7e565b5b6136778c828d01612f9b565b95505060a08a013567ffffffffffffffff81111561369857613697612e7e565b5b6136a48c828d01612f9b565b94505060c08a013567ffffffffffffffff8111156136c5576136c4612e7e565b5b6136d18c828d01612f9b565b93505060e08a013567ffffffffffffffff8111156136f2576136f1612e7e565b5b6136fe8c828d01612f9b565b9250506101008a013567ffffffffffffffff8111156137205761371f612e7e565b5b61372c8c828d01612f9b565b9150509295985092959850929598565b600081519050919050565b600082825260208201905092915050565b6000819050602082019050919050565b6000610120830160008301518482036000860152613786828261308e565b915050602083015161379b60208601826130d1565b5060408301516137ae60408601826130d1565b50606083015184820360608601526137c6828261308e565b915050608083015184820360808601526137e0828261308e565b91505060a083015184820360a08601526137fa828261308e565b91505060c083015184820360c0860152613814828261308e565b91505060e083015184820360e086015261382e828261308e565b91505061010083015184820361010086015261384a828261308e565b9150508091505092915050565b60006138638383613768565b905092915050565b6000602082019050919050565b60006138838261373c565b61388d8185613747565b93508360208202850161389f85613758565b8060005b858110156138db57848403895281516138bc8582613857565b94506138c78361386b565b925060208a019950506001810190506138a3565b50829750879550505050505092915050565b600060208201905081810360008301526139078184613878565b905092915050565b6000806000806080858703121561392957613928612e79565b5b600085013567ffffffffffffffff81111561394757613946612e7e565b5b61395387828801612f9b565b9450506020613964878288016134d9565b935050604085013567ffffffffffffffff81111561398557613984612e7e565b5b61399187828801612f9b565b925050606085013567ffffffffffffffff8111156139b2576139b1612e7e565b5b6139be87828801612f9b565b91505092959194509250565b600081905092915050565b60006139e082613048565b6139ea81856139ca565b93506139fa818560208601613064565b80840191505092915050565b6000613a1282846139d5565b915081905092915050565b7f4e487b7100000000000000000000000000000000000000000000000000000000600052602260045260246000fd5b60006002820490506001821680613a6457607f821691505b602082108103613a7757613a76613a1d565b5b50919050565b60008190508160005260206000209050919050565b60006020601f8301049050919050565b600082821b905092915050565b600060088302613adf7fffffffffffffffffffffffffffffffffffffffffffffffffffffffffffffffff82613aa2565b613ae98683613aa2565b95508019841693508086168417925050509392505050565b6000819050919050565b6000613b26613b21613b1c846130c7565b613b01565b6130c7565b9050919050565b6000819050919050565b613b4083613b0b565b613b54613b4c82613b2d565b848454613aaf565b825550505050565b600090565b613b69613b5c565b613b74818484613b37565b505050565b5b81811015613b9857613b8d600082613b61565b600181019050613b7a565b5050565b601f821115613bdd57613bae81613a7d565b613bb784613a92565b81016020851015613bc6578190505b613bda613bd285613a92565b830182613b79565b50505b505050565b600082821c905092915050565b6000613c0060001984600802613be2565b1980831691505092915050565b6000613c198383613bef565b9150826002028217905092915050565b613c3282613048565b67ffffffffffffffff811115613c4b57613c4a612e9e565b5b613c558254613a4c565b613c60828285613b9c565b600060209050601f831160018114613c935760008415613c81578287015190505b613c8b8582613c0d565b865550613cf3565b601f198416613ca186613a7d565b60005b82811015613cc957848901518255600182019150602085019450602081019050613ca4565b86831015613ce65784890151613ce2601f891682613bef565b8355505b6001600288020188555050505b50505050505056fea26469706673582212203ac942c0fe69a9b3b90153e7da67467d32568e8dca74675f954111c6c54001e564736f6c63430008120033",
  "immutableReferences": {},
  "source": "// SPDX-License-Identifier: MIT\r\npragma solidity >=0.4.22 <0.9.0;\r\n\r\ncontract organ {\r\n    uint256 a;\r\n\r\n    struct donor_account {\r\n        //account for donor\r\n        string name;\r\n        uint contact;\r\n        uint age;\r\n        string id;\r\n        string organs;\r\n        string date;\r\n        string donor_blood_group;\r\n        string donor_location;\r\n        string cid;\r\n    }\r\n\r\n    struct recipient_account {\r\n        string name;\r\n        uint contact;\r\n        uint age;\r\n        string id;\r\n        string date;\r\n        string organs_required;\r\n        string recipient_blood_group;\r\n        string recipient_location;\r\n        string recipient_cid;\r\n    }\r\n\r\n    struct doctor_account {\r\n        //account for doctor\r\n        string name;\r\n        uint contact;\r\n        string id;\r\n        string password;\r\n        address adrr;\r\n    }\r\n\r\n    mapping(string => bool) public is_doctor_registered; //username of registered doctors\r\n    doctor_account[] public doctor_register; //registered doctors\r\n    mapping(string => doctor_account) public registered_id; //maps usernames with accounts\r\n\r\n    mapping(string => bool) public is_donor_registered; //username of registered donors\r\n    mapping(string => bool) public is_recipient_registered; //username of registered recipients\r\n\r\n    donor_account[] public donor_register; //registered donors\r\n    mapping(string => donor_account) public donor_map; // mapping of donor id with donor account\r\n\r\n    recipient_account[] public recipient_register; //registered recipients\r\n    mapping(string => recipient_account) public recipient_map; // mapping of recipient id with recipient account\r\n\r\n    function getter() public view returns (uint256) {\r\n        return a;\r\n    }\r\n\r\n    function doctorSignUp(\r\n        string memory _name,\r\n        uint _contact,\r\n        string memory _id,\r\n        string memory _password\r\n    ) public {\r\n        require(is_doctor_registered[_id] == false);\r\n        is_doctor_registered[_id] = true;\r\n        doctor_account memory new_doctor = doctor_account(\r\n            _name,\r\n            _contact,\r\n            _id,\r\n            _password,\r\n            msg.sender\r\n        );\r\n        doctor_register.push(new_doctor);\r\n        registered_id[_id] = new_doctor;\r\n    }\r\n\r\n    function doctorSignIn(\r\n        string memory _id,\r\n        string memory _password\r\n    ) public view returns (bool) {\r\n        require(is_doctor_registered[_id] == true);\r\n        doctor_account memory current_account = registered_id[_id];\r\n        require(\r\n            keccak256(abi.encodePacked(_id)) ==\r\n                keccak256(abi.encodePacked(current_account.id))\r\n        );\r\n        require(\r\n            keccak256(abi.encodePacked(_password)) ==\r\n                keccak256(abi.encodePacked(current_account.password))\r\n        );\r\n        // require(keccak256(abi.encodePacked(msg.sender)) == keccak256(abi.encodePacked(current_account.adrr)));\r\n        return true;\r\n    }\r\n\r\n    function view_all_donors() public view returns (donor_account[] memory) {\r\n        return donor_register;\r\n    }\r\n\r\n    function view_donor_details(\r\n        string memory _id\r\n    ) public view returns (donor_account memory) {\r\n       // require(is_donor_registered[_id] == true);\r\n        return donor_map[_id];\r\n    }\r\n\r\n    function view_recipient_details(\r\n        string memory _id\r\n    ) public view returns (recipient_account memory) {\r\n        //require(is_recipient_registered[_id] == true);\r\n        return recipient_map[_id];\r\n    }\r\n\r\n    function donorSubmitDetails(\r\n        string memory _id,\r\n        string memory _name,\r\n        uint _contact,\r\n        uint _age,\r\n        string memory _organ,\r\n        string memory _date,\r\n        string memory _bg,\r\n        string memory _location,\r\n        string memory _cid\r\n    ) public {\r\n        donor_account memory new_donoraccount = donor_account(\r\n            _name,\r\n            _contact,\r\n            _age,\r\n            _id,\r\n            _organ,\r\n            _date,\r\n            _bg,\r\n            _location,\r\n            _cid\r\n        );\r\n        donor_map[_id] = new_donoraccount; // key: id value: donor account details\r\n    }\r\n\r\n    function recipientSubmitDetails(\r\n        string memory _id,\r\n        string memory _name,\r\n        uint _contact,\r\n        uint _age,\r\n        string memory _organ,\r\n        string memory _date,\r\n        string memory _bg,\r\n        string memory _location,\r\n        string memory _cid\r\n    ) public {\r\n        recipient_account memory new_recipientaccount = recipient_account(\r\n            _name,\r\n            _contact,\r\n            _age,\r\n            _id,\r\n            _organ,\r\n            _date,\r\n            _bg,\r\n            _location,\r\n            _cid\r\n        );\r\n        recipient_map[_id] = new_recipientaccount; // key: id value: recipient account details\r\n    }\r\n}\r\n",
  "sourcePath": "C:\\Users\\tanis\\HealthIQ_Major\\contracts\\organ.sol",
  "compiler": {
    "name": "solc",
    "version": "0.8.18+commit.87f61d96.Emscripten.clang"
  },
  "schemaVersion": "3.4.16",
  "updatedAt": "2023-11-28T11:30:44.592Z",
  "networkType": "ethereum",
  "devdoc": {
    "kind": "dev",
    "methods": {},
    "version": 1
  },
  "userdoc": {
    "kind": "user",
    "methods": {},
    "version": 1
  }
}