{
  "contractName": "organ",
  "abi": [
    {
      "inputs": [
        {
          "internalType": "uint256",
          "name": "",
          "type": "uint256"
        }
      ],
      "name": "doctor_register",
      "outputs": [
        {
          "internalType": "string",
          "name": "name",
          "type": "string"
        },
        {
          "internalType": "uint256",
          "name": "contact",
          "type": "uint256"
        },
        {
          "internalType": "string",
          "name": "id",
          "type": "string"
        },
        {
          "internalType": "string",
          "name": "password",
          "type": "string"
        },
        {
          "internalType": "address",
          "name": "adrr",
          "type": "address"
        }
      ],
      "stateMutability": "view",
      "type": "function",
      "constant": true
    },
    {
      "inputs": [
        {
          "internalType": "string",
          "name": "",
          "type": "string"
        }
      ],
      "name": "donor_map",
      "outputs": [
        {
          "internalType": "string",
          "name": "name",
          "type": "string"
        },
        {
          "internalType": "uint256",
          "name": "contact",
          "type": "uint256"
        },
        {
          "internalType": "uint256",
          "name": "age",
          "type": "uint256"
        },
        {
          "internalType": "string",
          "name": "id",
          "type": "string"
        },
        {
          "internalType": "string",
          "name": "organs",
          "type": "string"
        },
        {
          "internalType": "string",
          "name": "date",
          "type": "string"
        },
        {
          "internalType": "string",
          "name": "donor_blood_group",
          "type": "string"
        },
        {
          "internalType": "string",
          "name": "donor_location",
          "type": "string"
        },
        {
          "internalType": "string",
          "name": "cid",
          "type": "string"
        }
      ],
      "stateMutability": "view",
      "type": "function",
      "constant": true
    },
    {
      "inputs": [
        {
          "internalType": "uint256",
          "name": "",
          "type": "uint256"
        }
      ],
      "name": "donor_register",
      "outputs": [
        {
          "internalType": "string",
          "name": "name",
          "type": "string"
        },
        {
          "internalType": "uint256",
          "name": "contact",
          "type": "uint256"
        },
        {
          "internalType": "uint256",
          "name": "age",
          "type": "uint256"
        },
        {
          "internalType": "string",
          "name": "id",
          "type": "string"
        },
        {
          "internalType": "string",
          "name": "organs",
          "type": "string"
        },
        {
          "internalType": "string",
          "name": "date",
          "type": "string"
        },
        {
          "internalType": "string",
          "name": "donor_blood_group",
          "type": "string"
        },
        {
          "internalType": "string",
          "name": "donor_location",
          "type": "string"
        },
        {
          "internalType": "string",
          "name": "cid",
          "type": "string"
        }
      ],
      "stateMutability": "view",
      "type": "function",
      "constant": true
    },
    {
      "inputs": [
        {
          "internalType": "string",
          "name": "",
          "type": "string"
        }
      ],
      "name": "is_doctor_registered",
      "outputs": [
        {
          "internalType": "bool",
          "name": "",
          "type": "bool"
        }
      ],
      "stateMutability": "view",
      "type": "function",
      "constant": true
    },
    {
      "inputs": [
        {
          "internalType": "string",
          "name": "",
          "type": "string"
        }
      ],
      "name": "is_donor_registered",
      "outputs": [
        {
          "internalType": "bool",
          "name": "",
          "type": "bool"
        }
      ],
      "stateMutability": "view",
      "type": "function",
      "constant": true
    },
    {
      "inputs": [
        {
          "internalType": "string",
          "name": "",
          "type": "string"
        }
      ],
      "name": "is_recipient_registered",
      "outputs": [
        {
          "internalType": "bool",
          "name": "",
          "type": "bool"
        }
      ],
      "stateMutability": "view",
      "type": "function",
      "constant": true
    },
    {
      "inputs": [
        {
          "internalType": "string",
          "name": "",
          "type": "string"
        }
      ],
      "name": "recipient_map",
      "outputs": [
        {
          "internalType": "string",
          "name": "name",
          "type": "string"
        },
        {
          "internalType": "uint256",
          "name": "contact",
          "type": "uint256"
        },
        {
          "internalType": "uint256",
          "name": "age",
          "type": "uint256"
        },
        {
          "internalType": "string",
          "name": "id",
          "type": "string"
        },
        {
          "internalType": "string",
          "name": "date",
          "type": "string"
        },
        {
          "internalType": "string",
          "name": "organs_required",
          "type": "string"
        },
        {
          "internalType": "string",
          "name": "recipient_blood_group",
          "type": "string"
        },
        {
          "internalType": "string",
          "name": "recipient_location",
          "type": "string"
        },
        {
          "internalType": "string",
          "name": "recipient_cid",
          "type": "string"
        }
      ],
      "stateMutability": "view",
      "type": "function",
      "constant": true
    },
    {
      "inputs": [
        {
          "internalType": "uint256",
          "name": "",
          "type": "uint256"
        }
      ],
      "name": "recipient_register",
      "outputs": [
        {
          "internalType": "string",
          "name": "name",
          "type": "string"
        },
        {
          "internalType": "uint256",
          "name": "contact",
          "type": "uint256"
        },
        {
          "internalType": "uint256",
          "name": "age",
          "type": "uint256"
        },
        {
          "internalType": "string",
          "name": "id",
          "type": "string"
        },
        {
          "internalType": "string",
          "name": "date",
          "type": "string"
        },
        {
          "internalType": "string",
          "name": "organs_required",
          "type": "string"
        },
        {
          "internalType": "string",
          "name": "recipient_blood_group",
          "type": "string"
        },
        {
          "internalType": "string",
          "name": "recipient_location",
          "type": "string"
        },
        {
          "internalType": "string",
          "name": "recipient_cid",
          "type": "string"
        }
      ],
      "stateMutability": "view",
      "type": "function",
      "constant": true
    },
    {
      "inputs": [
        {
          "internalType": "string",
          "name": "",
          "type": "string"
        }
      ],
      "name": "registered_id",
      "outputs": [
        {
          "internalType": "string",
          "name": "name",
          "type": "string"
        },
        {
          "internalType": "uint256",
          "name": "contact",
          "type": "uint256"
        },
        {
          "internalType": "string",
          "name": "id",
          "type": "string"
        },
        {
          "internalType": "string",
          "name": "password",
          "type": "string"
        },
        {
          "internalType": "address",
          "name": "adrr",
          "type": "address"
        }
      ],
      "stateMutability": "view",
      "type": "function",
      "constant": true
    },
    {
      "inputs": [
        {
          "internalType": "string",
          "name": "_name",
          "type": "string"
        },
        {
          "internalType": "uint256",
          "name": "_contact",
          "type": "uint256"
        },
        {
          "internalType": "string",
          "name": "_id",
          "type": "string"
        },
        {
          "internalType": "string",
          "name": "_password",
          "type": "string"
        }
      ],
      "name": "doctorSignUp",
      "outputs": [],
      "stateMutability": "nonpayable",
      "type": "function"
    },
    {
      "inputs": [
        {
          "internalType": "string",
          "name": "_id",
          "type": "string"
        },
        {
          "internalType": "string",
          "name": "_password",
          "type": "string"
        }
      ],
      "name": "doctorSignIn",
      "outputs": [
        {
          "internalType": "bool",
          "name": "",
          "type": "bool"
        }
      ],
      "stateMutability": "view",
      "type": "function",
      "constant": true
    },
    {
      "inputs": [
        {
          "internalType": "string",
          "name": "_id",
          "type": "string"
        }
      ],
      "name": "view_donor_details",
      "outputs": [
        {
          "components": [
            {
              "internalType": "string",
              "name": "name",
              "type": "string"
            },
            {
              "internalType": "uint256",
              "name": "contact",
              "type": "uint256"
            },
            {
              "internalType": "uint256",
              "name": "age",
              "type": "uint256"
            },
            {
              "internalType": "string",
              "name": "id",
              "type": "string"
            },
            {
              "internalType": "string",
              "name": "organs",
              "type": "string"
            },
            {
              "internalType": "string",
              "name": "date",
              "type": "string"
            },
            {
              "internalType": "string",
              "name": "donor_blood_group",
              "type": "string"
            },
            {
              "internalType": "string",
              "name": "donor_location",
              "type": "string"
            },
            {
              "internalType": "string",
              "name": "cid",
              "type": "string"
            }
          ],
          "internalType": "struct organ.donor_account",
          "name": "",
          "type": "tuple"
        }
      ],
      "stateMutability": "view",
      "type": "function",
      "constant": true
    },
    {
      "inputs": [
        {
          "internalType": "string",
          "name": "_id",
          "type": "string"
        }
      ],
      "name": "view_recipient_details",
      "outputs": [
        {
          "components": [
            {
              "internalType": "string",
              "name": "name",
              "type": "string"
            },
            {
              "internalType": "uint256",
              "name": "contact",
              "type": "uint256"
            },
            {
              "internalType": "uint256",
              "name": "age",
              "type": "uint256"
            },
            {
              "internalType": "string",
              "name": "id",
              "type": "string"
            },
            {
              "internalType": "string",
              "name": "date",
              "type": "string"
            },
            {
              "internalType": "string",
              "name": "organs_required",
              "type": "string"
            },
            {
              "internalType": "string",
              "name": "recipient_blood_group",
              "type": "string"
            },
            {
              "internalType": "string",
              "name": "recipient_location",
              "type": "string"
            },
            {
              "internalType": "string",
              "name": "recipient_cid",
              "type": "string"
            }
          ],
          "internalType": "struct organ.recipient_account",
          "name": "",
          "type": "tuple"
        }
      ],
      "stateMutability": "view",
      "type": "function",
      "constant": true
    },
    {
      "inputs": [
        {
          "internalType": "string",
          "name": "_id",
          "type": "string"
        },
        {
          "internalType": "string",
          "name": "_name",
          "type": "string"
        },
        {
          "internalType": "uint256",
          "name": "_contact",
          "type": "uint256"
        },
        {
          "internalType": "uint256",
          "name": "_age",
          "type": "uint256"
        },
        {
          "internalType": "string",
          "name": "_organ",
          "type": "string"
        },
        {
          "internalType": "string",
          "name": "_date",
          "type": "string"
        },
        {
          "internalType": "string",
          "name": "_bg",
          "type": "string"
        },
        {
          "internalType": "string",
          "name": "_location",
          "type": "string"
        },
        {
          "internalType": "string",
          "name": "_cid",
          "type": "string"
        }
      ],
      "name": "donorSubmitDetails",
      "outputs": [],
      "stateMutability": "nonpayable",
      "type": "function"
    },
    {
      "inputs": [
        {
          "internalType": "string",
          "name": "_id",
          "type": "string"
        },
        {
          "internalType": "string",
          "name": "_name",
          "type": "string"
        },
        {
          "internalType": "uint256",
          "name": "_contact",
          "type": "uint256"
        },
        {
          "internalType": "uint256",
          "name": "_age",
          "type": "uint256"
        },
        {
          "internalType": "string",
          "name": "_organ",
          "type": "string"
        },
        {
          "internalType": "string",
          "name": "_date",
          "type": "string"
        },
        {
          "internalType": "string",
          "name": "_bg",
          "type": "string"
        },
        {
          "internalType": "string",
          "name": "_location",
          "type": "string"
        },
        {
          "internalType": "string",
          "name": "_cid",
          "type": "string"
        }
      ],
      "name": "recipientSubmitDetails",
      "outputs": [],
      "stateMutability": "nonpayable",
      "type": "function"
    }
  ],
  "bytecode": "0x608060405234801561001057600080fd5b506136ef806100206000396000f3fe608060405234801561001057600080fd5b50600436106100f55760003560e01c8063677b772a11610097578063bf9d5f2611610066578063bf9d5f2614610312578063d4966aae1461034a578063ed51c8241461037e578063fa6a83051461039a576100f5565b8063677b772a146102565780638cc053921461028e578063ad731055146102be578063b99486c2146102f6576100f5565b806353730b9f116100d357806353730b9f1461018a57806353ef30c5146101c257806366c72b53146101f657806366c9457714610226576100f5565b80630f5f0ecb146100fa578063377f29e71461012a5780634ef437481461015a575b600080fd5b610114600480360381019061010f9190612b75565b6103b6565b6040516101219190612bd9565b60405180910390f35b610144600480360381019061013f9190612b75565b6103ec565b6040516101519190612d7b565b60405180910390f35b610174600480360381019061016f9190612b75565b610873565b6040516101819190612bd9565b60405180910390f35b6101a4600480360381019061019f9190612b75565b6108a9565b6040516101b999989796959493929190612df6565b60405180910390f35b6101dc60048036038101906101d79190612b75565b610cc5565b6040516101ed959493929190612ef5565b60405180910390f35b610210600480360381019061020b9190612b75565b610ec9565b60405161021d9190612bd9565b60405180910390f35b610240600480360381019061023b9190612b75565b610eff565b60405161024d919061304c565b60405180910390f35b610270600480360381019061026b919061309a565b611386565b60405161028599989796959493929190612df6565b60405180910390f35b6102a860048036038101906102a391906130c7565b61179c565b6040516102b59190612bd9565b60405180910390f35b6102d860048036038101906102d39190612b75565b611ae0565b6040516102ed99989796959493929190612df6565b60405180910390f35b610310600480360381019061030b919061313f565b611efc565b005b61032c6004803603810190610327919061309a565b61201d565b60405161034199989796959493929190612df6565b60405180910390f35b610364600480360381019061035f919061309a565b612433565b604051610375959493929190612ef5565b60405180910390f35b610398600480360381019061039391906132cd565b612631565b005b6103b460048036038101906103af919061313f565b612862565b005b6004818051602081018201805184825260208301602085012081835280955050505050506000915054906101000a900460ff1681565b6103f4612983565b6001151560038360405161040891906133c4565b908152602001604051809103902060009054906101000a900460ff1615151461043057600080fd5b60068260405161044091906133c4565b90815260200160405180910390206040518061012001604052908160008201805461046a9061340a565b80601f01602080910402602001604051908101604052809291908181526020018280546104969061340a565b80156104e35780601f106104b8576101008083540402835291602001916104e3565b820191906000526020600020905b8154815290600101906020018083116104c657829003601f168201915b5050505050815260200160018201548152602001600282015481526020016003820180546105109061340a565b80601f016020809104026020016040519081016040528092919081815260200182805461053c9061340a565b80156105895780601f1061055e57610100808354040283529160200191610589565b820191906000526020600020905b81548152906001019060200180831161056c57829003601f168201915b505050505081526020016004820180546105a29061340a565b80601f01602080910402602001604051908101604052809291908181526020018280546105ce9061340a565b801561061b5780601f106105f05761010080835404028352916020019161061b565b820191906000526020600020905b8154815290600101906020018083116105fe57829003601f168201915b505050505081526020016005820180546106349061340a565b80601f01602080910402602001604051908101604052809291908181526020018280546106609061340a565b80156106ad5780601f10610682576101008083540402835291602001916106ad565b820191906000526020600020905b81548152906001019060200180831161069057829003601f168201915b505050505081526020016006820180546106c69061340a565b80601f01602080910402602001604051908101604052809291908181526020018280546106f29061340a565b801561073f5780601f106107145761010080835404028352916020019161073f565b820191906000526020600020905b81548152906001019060200180831161072257829003601f168201915b505050505081526020016007820180546107589061340a565b80601f01602080910402602001604051908101604052809291908181526020018280546107849061340a565b80156107d15780601f106107a6576101008083540402835291602001916107d1565b820191906000526020600020905b8154815290600101906020018083116107b457829003601f168201915b505050505081526020016008820180546107ea9061340a565b80601f01602080910402602001604051908101604052809291908181526020018280546108169061340a565b80156108635780601f1061083857610100808354040283529160200191610863565b820191906000526020600020905b81548152906001019060200180831161084657829003601f168201915b5050505050815250509050919050565b6000818051602081018201805184825260208301602085012081835280955050505050506000915054906101000a900460ff1681565b6006818051602081018201805184825260208301602085012081835280955050505050506000915090508060000180546108e29061340a565b80601f016020809104026020016040519081016040528092919081815260200182805461090e9061340a565b801561095b5780601f106109305761010080835404028352916020019161095b565b820191906000526020600020905b81548152906001019060200180831161093e57829003601f168201915b50505050509080600101549080600201549080600301805461097c9061340a565b80601f01602080910402602001604051908101604052809291908181526020018280546109a89061340a565b80156109f55780601f106109ca576101008083540402835291602001916109f5565b820191906000526020600020905b8154815290600101906020018083116109d857829003601f168201915b505050505090806004018054610a0a9061340a565b80601f0160208091040260200160405190810160405280929190818152602001828054610a369061340a565b8015610a835780601f10610a5857610100808354040283529160200191610a83565b820191906000526020600020905b815481529060010190602001808311610a6657829003601f168201915b505050505090806005018054610a989061340a565b80601f0160208091040260200160405190810160405280929190818152602001828054610ac49061340a565b8015610b115780601f10610ae657610100808354040283529160200191610b11565b820191906000526020600020905b815481529060010190602001808311610af457829003601f168201915b505050505090806006018054610b269061340a565b80601f0160208091040260200160405190810160405280929190818152602001828054610b529061340a565b8015610b9f5780601f10610b7457610100808354040283529160200191610b9f565b820191906000526020600020905b815481529060010190602001808311610b8257829003601f168201915b505050505090806007018054610bb49061340a565b80601f0160208091040260200160405190810160405280929190818152602001828054610be09061340a565b8015610c2d5780601f10610c0257610100808354040283529160200191610c2d565b820191906000526020600020905b815481529060010190602001808311610c1057829003601f168201915b505050505090806008018054610c429061340a565b80601f0160208091040260200160405190810160405280929190818152602001828054610c6e9061340a565b8015610cbb5780601f10610c9057610100808354040283529160200191610cbb565b820191906000526020600020905b815481529060010190602001808311610c9e57829003601f168201915b5050505050905089565b600281805160208101820180518482526020830160208501208183528095505050505050600091509050806000018054610cfe9061340a565b80601f0160208091040260200160405190810160405280929190818152602001828054610d2a9061340a565b8015610d775780601f10610d4c57610100808354040283529160200191610d77565b820191906000526020600020905b815481529060010190602001808311610d5a57829003601f168201915b505050505090806001015490806002018054610d929061340a565b80601f0160208091040260200160405190810160405280929190818152602001828054610dbe9061340a565b8015610e0b5780601f10610de057610100808354040283529160200191610e0b565b820191906000526020600020905b815481529060010190602001808311610dee57829003601f168201915b505050505090806003018054610e209061340a565b80601f0160208091040260200160405190810160405280929190818152602001828054610e4c9061340a565b8015610e995780601f10610e6e57610100808354040283529160200191610e99565b820191906000526020600020905b815481529060010190602001808311610e7c57829003601f168201915b5050505050908060040160009054906101000a900473ffffffffffffffffffffffffffffffffffffffff16905085565b6003818051602081018201805184825260208301602085012081835280955050505050506000915054906101000a900460ff1681565b610f076129cf565b60011515600483604051610f1b91906133c4565b908152602001604051809103902060009054906101000a900460ff16151514610f4357600080fd5b600882604051610f5391906133c4565b908152602001604051809103902060405180610120016040529081600082018054610f7d9061340a565b80601f0160208091040260200160405190810160405280929190818152602001828054610fa99061340a565b8015610ff65780601f10610fcb57610100808354040283529160200191610ff6565b820191906000526020600020905b815481529060010190602001808311610fd957829003601f168201915b5050505050815260200160018201548152602001600282015481526020016003820180546110239061340a565b80601f016020809104026020016040519081016040528092919081815260200182805461104f9061340a565b801561109c5780601f106110715761010080835404028352916020019161109c565b820191906000526020600020905b81548152906001019060200180831161107f57829003601f168201915b505050505081526020016004820180546110b59061340a565b80601f01602080910402602001604051908101604052809291908181526020018280546110e19061340a565b801561112e5780601f106111035761010080835404028352916020019161112e565b820191906000526020600020905b81548152906001019060200180831161111157829003601f168201915b505050505081526020016005820180546111479061340a565b80601f01602080910402602001604051908101604052809291908181526020018280546111739061340a565b80156111c05780601f10611195576101008083540402835291602001916111c0565b820191906000526020600020905b8154815290600101906020018083116111a357829003601f168201915b505050505081526020016006820180546111d99061340a565b80601f01602080910402602001604051908101604052809291908181526020018280546112059061340a565b80156112525780601f1061122757610100808354040283529160200191611252565b820191906000526020600020905b81548152906001019060200180831161123557829003601f168201915b5050505050815260200160078201805461126b9061340a565b80601f01602080910402602001604051908101604052809291908181526020018280546112979061340a565b80156112e45780601f106112b9576101008083540402835291602001916112e4565b820191906000526020600020905b8154815290600101906020018083116112c757829003601f168201915b505050505081526020016008820180546112fd9061340a565b80601f01602080910402602001604051908101604052809291908181526020018280546113299061340a565b80156113765780601f1061134b57610100808354040283529160200191611376565b820191906000526020600020905b81548152906001019060200180831161135957829003601f168201915b5050505050815250509050919050565b6005818154811061139657600080fd5b90600052602060002090600902016000915090508060000180546113b99061340a565b80601f01602080910402602001604051908101604052809291908181526020018280546113e59061340a565b80156114325780601f1061140757610100808354040283529160200191611432565b820191906000526020600020905b81548152906001019060200180831161141557829003601f168201915b5050505050908060010154908060020154908060030180546114539061340a565b80601f016020809104026020016040519081016040528092919081815260200182805461147f9061340a565b80156114cc5780601f106114a1576101008083540402835291602001916114cc565b820191906000526020600020905b8154815290600101906020018083116114af57829003601f168201915b5050505050908060040180546114e19061340a565b80601f016020809104026020016040519081016040528092919081815260200182805461150d9061340a565b801561155a5780601f1061152f5761010080835404028352916020019161155a565b820191906000526020600020905b81548152906001019060200180831161153d57829003601f168201915b50505050509080600501805461156f9061340a565b80601f016020809104026020016040519081016040528092919081815260200182805461159b9061340a565b80156115e85780601f106115bd576101008083540402835291602001916115e8565b820191906000526020600020905b8154815290600101906020018083116115cb57829003601f168201915b5050505050908060060180546115fd9061340a565b80601f01602080910402602001604051908101604052809291908181526020018280546116299061340a565b80156116765780601f1061164b57610100808354040283529160200191611676565b820191906000526020600020905b81548152906001019060200180831161165957829003601f168201915b50505050509080600701805461168b9061340a565b80601f01602080910402602001604051908101604052809291908181526020018280546116b79061340a565b80156117045780601f106116d957610100808354040283529160200191611704565b820191906000526020600020905b8154815290600101906020018083116116e757829003601f168201915b5050505050908060080180546117199061340a565b80601f01602080910402602001604051908101604052809291908181526020018280546117459061340a565b80156117925780601f1061176757610100808354040283529160200191611792565b820191906000526020600020905b81548152906001019060200180831161177557829003601f168201915b5050505050905089565b6000600115156000846040516117b291906133c4565b908152602001604051809103902060009054906101000a900460ff161515146117da57600080fd5b60006002846040516117ec91906133c4565b90815260200160405180910390206040518060a00160405290816000820180546118159061340a565b80601f01602080910402602001604051908101604052809291908181526020018280546118419061340a565b801561188e5780601f106118635761010080835404028352916020019161188e565b820191906000526020600020905b81548152906001019060200180831161187157829003601f168201915b50505050508152602001600182015481526020016002820180546118b19061340a565b80601f01602080910402602001604051908101604052809291908181526020018280546118dd9061340a565b801561192a5780601f106118ff5761010080835404028352916020019161192a565b820191906000526020600020905b81548152906001019060200180831161190d57829003601f168201915b505050505081526020016003820180546119439061340a565b80601f016020809104026020016040519081016040528092919081815260200182805461196f9061340a565b80156119bc5780601f10611991576101008083540402835291602001916119bc565b820191906000526020600020905b81548152906001019060200180831161199f57829003601f168201915b505050505081526020016004820160009054906101000a900473ffffffffffffffffffffffffffffffffffffffff1673ffffffffffffffffffffffffffffffffffffffff1673ffffffffffffffffffffffffffffffffffffffff168152505090508060400151604051602001611a3291906133c4565b6040516020818303038152906040528051906020012084604051602001611a5991906133c4565b6040516020818303038152906040528051906020012014611a7957600080fd5b8060600151604051602001611a8e91906133c4565b6040516020818303038152906040528051906020012083604051602001611ab591906133c4565b6040516020818303038152906040528051906020012014611ad557600080fd5b600191505092915050565b600881805160208101820180518482526020830160208501208183528095505050505050600091509050806000018054611b199061340a565b80601f0160208091040260200160405190810160405280929190818152602001828054611b459061340a565b8015611b925780601f10611b6757610100808354040283529160200191611b92565b820191906000526020600020905b815481529060010190602001808311611b7557829003601f168201915b505050505090806001015490806002015490806003018054611bb39061340a565b80601f0160208091040260200160405190810160405280929190818152602001828054611bdf9061340a565b8015611c2c5780601f10611c0157610100808354040283529160200191611c2c565b820191906000526020600020905b815481529060010190602001808311611c0f57829003601f168201915b505050505090806004018054611c419061340a565b80601f0160208091040260200160405190810160405280929190818152602001828054611c6d9061340a565b8015611cba5780601f10611c8f57610100808354040283529160200191611cba565b820191906000526020600020905b815481529060010190602001808311611c9d57829003601f168201915b505050505090806005018054611ccf9061340a565b80601f0160208091040260200160405190810160405280929190818152602001828054611cfb9061340a565b8015611d485780601f10611d1d57610100808354040283529160200191611d48565b820191906000526020600020905b815481529060010190602001808311611d2b57829003601f168201915b505050505090806006018054611d5d9061340a565b80601f0160208091040260200160405190810160405280929190818152602001828054611d899061340a565b8015611dd65780601f10611dab57610100808354040283529160200191611dd6565b820191906000526020600020905b815481529060010190602001808311611db957829003601f168201915b505050505090806007018054611deb9061340a565b80601f0160208091040260200160405190810160405280929190818152602001828054611e179061340a565b8015611e645780601f10611e3957610100808354040283529160200191611e64565b820191906000526020600020905b815481529060010190602001808311611e4757829003601f168201915b505050505090806008018054611e799061340a565b80601f0160208091040260200160405190810160405280929190818152602001828054611ea59061340a565b8015611ef25780601f10611ec757610100808354040283529160200191611ef2565b820191906000526020600020905b815481529060010190602001808311611ed557829003601f168201915b5050505050905089565b60006040518061012001604052808a81526020018981526020018881526020018b81526020018781526020018681526020018581526020018481526020018381525090508060068b604051611f5191906133c4565b90815260200160405180910390206000820151816000019081611f7491906135e7565b5060208201518160010155604082015181600201556060820151816003019081611f9e91906135e7565b506080820151816004019081611fb491906135e7565b5060a0820151816005019081611fca91906135e7565b5060c0820151816006019081611fe091906135e7565b5060e0820151816007019081611ff691906135e7565b5061010082015181600801908161200d91906135e7565b5090505050505050505050505050565b6007818154811061202d57600080fd5b90600052602060002090600902016000915090508060000180546120509061340a565b80601f016020809104026020016040519081016040528092919081815260200182805461207c9061340a565b80156120c95780601f1061209e576101008083540402835291602001916120c9565b820191906000526020600020905b8154815290600101906020018083116120ac57829003601f168201915b5050505050908060010154908060020154908060030180546120ea9061340a565b80601f01602080910402602001604051908101604052809291908181526020018280546121169061340a565b80156121635780601f1061213857610100808354040283529160200191612163565b820191906000526020600020905b81548152906001019060200180831161214657829003601f168201915b5050505050908060040180546121789061340a565b80601f01602080910402602001604051908101604052809291908181526020018280546121a49061340a565b80156121f15780601f106121c6576101008083540402835291602001916121f1565b820191906000526020600020905b8154815290600101906020018083116121d457829003601f168201915b5050505050908060050180546122069061340a565b80601f01602080910402602001604051908101604052809291908181526020018280546122329061340a565b801561227f5780601f106122545761010080835404028352916020019161227f565b820191906000526020600020905b81548152906001019060200180831161226257829003601f168201915b5050505050908060060180546122949061340a565b80601f01602080910402602001604051908101604052809291908181526020018280546122c09061340a565b801561230d5780601f106122e25761010080835404028352916020019161230d565b820191906000526020600020905b8154815290600101906020018083116122f057829003601f168201915b5050505050908060070180546123229061340a565b80601f016020809104026020016040519081016040528092919081815260200182805461234e9061340a565b801561239b5780601f106123705761010080835404028352916020019161239b565b820191906000526020600020905b81548152906001019060200180831161237e57829003601f168201915b5050505050908060080180546123b09061340a565b80601f01602080910402602001604051908101604052809291908181526020018280546123dc9061340a565b80156124295780601f106123fe57610100808354040283529160200191612429565b820191906000526020600020905b81548152906001019060200180831161240c57829003601f168201915b5050505050905089565b6001818154811061244357600080fd5b90600052602060002090600502016000915090508060000180546124669061340a565b80601f01602080910402602001604051908101604052809291908181526020018280546124929061340a565b80156124df5780601f106124b4576101008083540402835291602001916124df565b820191906000526020600020905b8154815290600101906020018083116124c257829003601f168201915b5050505050908060010154908060020180546124fa9061340a565b80601f01602080910402602001604051908101604052809291908181526020018280546125269061340a565b80156125735780601f1061254857610100808354040283529160200191612573565b820191906000526020600020905b81548152906001019060200180831161255657829003601f168201915b5050505050908060030180546125889061340a565b80601f01602080910402602001604051908101604052809291908181526020018280546125b49061340a565b80156126015780601f106125d657610100808354040283529160200191612601565b820191906000526020600020905b8154815290600101906020018083116125e457829003601f168201915b5050505050908060040160009054906101000a900473ffffffffffffffffffffffffffffffffffffffff16905085565b6000151560008360405161264591906133c4565b908152602001604051809103902060009054906101000a900460ff1615151461266d57600080fd5b600160008360405161267f91906133c4565b908152602001604051809103902060006101000a81548160ff02191690831515021790555060006040518060a001604052808681526020018581526020018481526020018381526020013373ffffffffffffffffffffffffffffffffffffffff1681525090506001819080600181540180825580915050600190039060005260206000209060050201600090919091909150600082015181600001908161272691906135e7565b5060208201518160010155604082015181600201908161274691906135e7565b50606082015181600301908161275c91906135e7565b5060808201518160040160006101000a81548173ffffffffffffffffffffffffffffffffffffffff021916908373ffffffffffffffffffffffffffffffffffffffff1602179055505050806002846040516127b791906133c4565b908152602001604051809103902060008201518160000190816127da91906135e7565b506020820151816001015560408201518160020190816127fa91906135e7565b50606082015181600301908161281091906135e7565b5060808201518160040160006101000a81548173ffffffffffffffffffffffffffffffffffffffff021916908373ffffffffffffffffffffffffffffffffffffffff1602179055509050505050505050565b60006040518061012001604052808a81526020018981526020018881526020018b81526020018781526020018681526020018581526020018481526020018381525090508060088b6040516128b791906133c4565b908152602001604051809103902060008201518160000190816128da91906135e7565b506020820151816001015560408201518160020155606082015181600301908161290491906135e7565b50608082015181600401908161291a91906135e7565b5060a082015181600501908161293091906135e7565b5060c082015181600601908161294691906135e7565b5060e082015181600701908161295c91906135e7565b5061010082015181600801908161297391906135e7565b5090505050505050505050505050565b6040518061012001604052806060815260200160008152602001600081526020016060815260200160608152602001606081526020016060815260200160608152602001606081525090565b6040518061012001604052806060815260200160008152602001600081526020016060815260200160608152602001606081526020016060815260200160608152602001606081525090565b6000604051905090565b600080fd5b600080fd5b600080fd5b600080fd5b6000601f19601f8301169050919050565b7f4e487b7100000000000000000000000000000000000000000000000000000000600052604160045260246000fd5b612a8282612a39565b810181811067ffffffffffffffff82111715612aa157612aa0612a4a565b5b80604052505050565b6000612ab4612a1b565b9050612ac08282612a79565b919050565b600067ffffffffffffffff821115612ae057612adf612a4a565b5b612ae982612a39565b9050602081019050919050565b82818337600083830152505050565b6000612b18612b1384612ac5565b612aaa565b905082815260208101848484011115612b3457612b33612a34565b5b612b3f848285612af6565b509392505050565b600082601f830112612b5c57612b5b612a2f565b5b8135612b6c848260208601612b05565b91505092915050565b600060208284031215612b8b57612b8a612a25565b5b600082013567ffffffffffffffff811115612ba957612ba8612a2a565b5b612bb584828501612b47565b91505092915050565b60008115159050919050565b612bd381612bbe565b82525050565b6000602082019050612bee6000830184612bca565b92915050565b600081519050919050565b600082825260208201905092915050565b60005b83811015612c2e578082015181840152602081019050612c13565b60008484015250505050565b6000612c4582612bf4565b612c4f8185612bff565b9350612c5f818560208601612c10565b612c6881612a39565b840191505092915050565b6000819050919050565b612c8681612c73565b82525050565b6000610120830160008301518482036000860152612caa8282612c3a565b9150506020830151612cbf6020860182612c7d565b506040830151612cd26040860182612c7d565b5060608301518482036060860152612cea8282612c3a565b91505060808301518482036080860152612d048282612c3a565b91505060a083015184820360a0860152612d1e8282612c3a565b91505060c083015184820360c0860152612d388282612c3a565b91505060e083015184820360e0860152612d528282612c3a565b915050610100830151848203610100860152612d6e8282612c3a565b9150508091505092915050565b60006020820190508181036000830152612d958184612c8c565b905092915050565b600082825260208201905092915050565b6000612db982612bf4565b612dc38185612d9d565b9350612dd3818560208601612c10565b612ddc81612a39565b840191505092915050565b612df081612c73565b82525050565b6000610120820190508181036000830152612e11818c612dae565b9050612e20602083018b612de7565b612e2d604083018a612de7565b8181036060830152612e3f8189612dae565b90508181036080830152612e538188612dae565b905081810360a0830152612e678187612dae565b905081810360c0830152612e7b8186612dae565b905081810360e0830152612e8f8185612dae565b9050818103610100830152612ea48184612dae565b90509a9950505050505050505050565b600073ffffffffffffffffffffffffffffffffffffffff82169050919050565b6000612edf82612eb4565b9050919050565b612eef81612ed4565b82525050565b600060a0820190508181036000830152612f0f8188612dae565b9050612f1e6020830187612de7565b8181036040830152612f308186612dae565b90508181036060830152612f448185612dae565b9050612f536080830184612ee6565b9695505050505050565b6000610120830160008301518482036000860152612f7b8282612c3a565b9150506020830151612f906020860182612c7d565b506040830151612fa36040860182612c7d565b5060608301518482036060860152612fbb8282612c3a565b91505060808301518482036080860152612fd58282612c3a565b91505060a083015184820360a0860152612fef8282612c3a565b91505060c083015184820360c08601526130098282612c3a565b91505060e083015184820360e08601526130238282612c3a565b91505061010083015184820361010086015261303f8282612c3a565b9150508091505092915050565b600060208201905081810360008301526130668184612f5d565b905092915050565b61307781612c73565b811461308257600080fd5b50565b6000813590506130948161306e565b92915050565b6000602082840312156130b0576130af612a25565b5b60006130be84828501613085565b91505092915050565b600080604083850312156130de576130dd612a25565b5b600083013567ffffffffffffffff8111156130fc576130fb612a2a565b5b61310885828601612b47565b925050602083013567ffffffffffffffff81111561312957613128612a2a565b5b61313585828601612b47565b9150509250929050565b60008060008060008060008060006101208a8c03121561316257613161612a25565b5b60008a013567ffffffffffffffff8111156131805761317f612a2a565b5b61318c8c828d01612b47565b99505060208a013567ffffffffffffffff8111156131ad576131ac612a2a565b5b6131b98c828d01612b47565b98505060406131ca8c828d01613085565b97505060606131db8c828d01613085565b96505060808a013567ffffffffffffffff8111156131fc576131fb612a2a565b5b6132088c828d01612b47565b95505060a08a013567ffffffffffffffff81111561322957613228612a2a565b5b6132358c828d01612b47565b94505060c08a013567ffffffffffffffff81111561325657613255612a2a565b5b6132628c828d01612b47565b93505060e08a013567ffffffffffffffff81111561328357613282612a2a565b5b61328f8c828d01612b47565b9250506101008a013567ffffffffffffffff8111156132b1576132b0612a2a565b5b6132bd8c828d01612b47565b9150509295985092959850929598565b600080600080608085870312156132e7576132e6612a25565b5b600085013567ffffffffffffffff81111561330557613304612a2a565b5b61331187828801612b47565b945050602061332287828801613085565b935050604085013567ffffffffffffffff81111561334357613342612a2a565b5b61334f87828801612b47565b925050606085013567ffffffffffffffff8111156133705761336f612a2a565b5b61337c87828801612b47565b91505092959194509250565b600081905092915050565b600061339e82612bf4565b6133a88185613388565b93506133b8818560208601612c10565b80840191505092915050565b60006133d08284613393565b915081905092915050565b7f4e487b7100000000000000000000000000000000000000000000000000000000600052602260045260246000fd5b6000600282049050600182168061342257607f821691505b602082108103613435576134346133db565b5b50919050565b60008190508160005260206000209050919050565b60006020601f8301049050919050565b600082821b905092915050565b60006008830261349d7fffffffffffffffffffffffffffffffffffffffffffffffffffffffffffffffff82613460565b6134a78683613460565b95508019841693508086168417925050509392505050565b6000819050919050565b60006134e46134df6134da84612c73565b6134bf565b612c73565b9050919050565b6000819050919050565b6134fe836134c9565b61351261350a826134eb565b84845461346d565b825550505050565b600090565b61352761351a565b6135328184846134f5565b505050565b5b818110156135565761354b60008261351f565b600181019050613538565b5050565b601f82111561359b5761356c8161343b565b61357584613450565b81016020851015613584578190505b61359861359085613450565b830182613537565b50505b505050565b600082821c905092915050565b60006135be600019846008026135a0565b1980831691505092915050565b60006135d783836135ad565b9150826002028217905092915050565b6135f082612bf4565b67ffffffffffffffff81111561360957613608612a4a565b5b613613825461340a565b61361e82828561355a565b600060209050601f831160018114613651576000841561363f578287015190505b61364985826135cb565b8655506136b1565b601f19841661365f8661343b565b60005b8281101561368757848901518255600182019150602085019450602081019050613662565b868310156136a457848901516136a0601f8916826135ad565b8355505b6001600288020188555050505b50505050505056fea2646970667358221220bd40a705a13d5ca10aca7e19e3bf1d4f15e43febd2392e7cc4ee2d939ed3681864736f6c63430008120033",
  "immutableReferences": {},
  "source": "// SPDX-License-Identifier: MIT\r\npragma solidity >=0.4.22 <0.9.0;\r\n\r\ncontract organ {\r\n    struct donor_account {\r\n        //account for donor\r\n        string name;\r\n        uint contact;\r\n        uint age;\r\n        string id;\r\n        string organs;\r\n        string date;\r\n        string donor_blood_group;\r\n        string donor_location;\r\n        string cid;\r\n    }\r\n\r\n    struct recipient_account {\r\n        string name;\r\n        uint contact;\r\n        uint age;\r\n        string id;\r\n        string date;\r\n        string organs_required;\r\n        string recipient_blood_group;\r\n        string recipient_location;\r\n        string recipient_cid;\r\n    }\r\n\r\n    struct doctor_account {\r\n        //account for doctor\r\n        string name;\r\n        uint contact;\r\n        string id;\r\n        string password;\r\n        address adrr;\r\n    }\r\n\r\n    mapping(string => bool) public is_doctor_registered; //username of registered doctors\r\n    doctor_account[] public doctor_register; //registered doctors\r\n    mapping(string => doctor_account) public registered_id; //maps usernames with accounts\r\n\r\n    mapping(string => bool) public is_donor_registered; //username of registered donors\r\n    mapping(string => bool) public is_recipient_registered; //username of registered recipients\r\n\r\n    donor_account[] public donor_register; //registered donors\r\n    mapping(string => donor_account) public donor_map; // mapping of donor id with donor account\r\n\r\n    recipient_account[] public recipient_register; //registered recipients\r\n    mapping(string => recipient_account) public recipient_map; // mapping of recipient id with recipient account\r\n\r\n    function doctorSignUp(\r\n        string memory _name,\r\n        uint _contact,\r\n        string memory _id,\r\n        string memory _password\r\n    ) public {\r\n        require(is_doctor_registered[_id] == false);\r\n        is_doctor_registered[_id] = true;\r\n        doctor_account memory new_doctor = doctor_account(\r\n            _name,\r\n            _contact,\r\n            _id,\r\n            _password,\r\n            msg.sender\r\n        );\r\n        doctor_register.push(new_doctor);\r\n        registered_id[_id] = new_doctor;\r\n    }\r\n\r\n    function doctorSignIn(\r\n        string memory _id,\r\n        string memory _password\r\n    ) public view returns (bool) {\r\n        require(is_doctor_registered[_id] == true);\r\n        doctor_account memory current_account = registered_id[_id];\r\n        require(\r\n            keccak256(abi.encodePacked(_id)) ==\r\n                keccak256(abi.encodePacked(current_account.id))\r\n        );\r\n        require(\r\n            keccak256(abi.encodePacked(_password)) ==\r\n                keccak256(abi.encodePacked(current_account.password))\r\n        );\r\n        // require(keccak256(abi.encodePacked(msg.sender)) == keccak256(abi.encodePacked(current_account.adrr)));\r\n        return true;\r\n    }\r\n\r\n    function view_donor_details(\r\n        string memory _id\r\n    ) public view returns (donor_account memory) {\r\n        require(is_donor_registered[_id] == true);\r\n        return donor_map[_id];\r\n    }\r\n\r\n    function view_recipient_details(\r\n        string memory _id\r\n    ) public view returns (recipient_account memory) {\r\n        require(is_recipient_registered[_id] == true);\r\n        return recipient_map[_id];\r\n    }\r\n\r\n    function donorSubmitDetails(\r\n        string memory _id,\r\n        string memory _name,\r\n        uint _contact,\r\n        uint _age,\r\n        string memory _organ,\r\n        string memory _date,\r\n        string memory _bg,\r\n        string memory _location,\r\n        string memory _cid\r\n    ) public {\r\n        donor_account memory new_donoraccount = donor_account(\r\n            _name,\r\n            _contact,\r\n            _age,\r\n            _id,\r\n            _organ,\r\n            _date,\r\n            _bg,\r\n            _location,\r\n            _cid\r\n        );\r\n        donor_map[_id] = new_donoraccount; // key: id value: donor account details\r\n    }\r\n\r\n    function recipientSubmitDetails(\r\n        string memory _id,\r\n        string memory _name,\r\n        uint _contact,\r\n        uint _age,\r\n        string memory _organ,\r\n        string memory _date,\r\n        string memory _bg,\r\n        string memory _location,\r\n        string memory _cid\r\n    ) public {\r\n        recipient_account memory new_recipientaccount = recipient_account(\r\n            _name,\r\n            _contact,\r\n            _age,\r\n            _id,\r\n            _organ,\r\n            _date,\r\n            _bg,\r\n            _location,\r\n            _cid\r\n        );\r\n        recipient_map[_id] = new_recipientaccount; // key: id value: recipient account details\r\n    }\r\n}\r\n",
  "sourcePath": "C:\\Users\\tanis\\HealthIQ_Major\\contracts\\organ.sol",
  "compiler": {
    "name": "solc",
    "version": "0.8.18+commit.87f61d96.Emscripten.clang"
  },
  "schemaVersion": "3.4.16",
  "updatedAt": "2023-11-23T19:57:03.963Z",
  "networkType": "ethereum",
  "devdoc": {
    "kind": "dev",
    "methods": {},
    "version": 1
  },
  "userdoc": {
    "kind": "user",
    "methods": {},
    "version": 1
  }
}